{
  "contractName": "BGV",
  "abi": [
    {
      "anonymous": false,
      "inputs": [
        {
          "indexed": true,
          "internalType": "address",
          "name": "studentAddress",
          "type": "address"
        },
        {
          "indexed": false,
          "internalType": "string",
          "name": "hashValue",
          "type": "string"
        },
        {
          "indexed": false,
          "internalType": "enum BGV.AccessType",
          "name": "newAccessType",
          "type": "uint8"
        }
      ],
      "name": "DocumentAccessChanged",
      "type": "event"
    },
    {
      "anonymous": false,
      "inputs": [
        {
          "indexed": true,
          "internalType": "address",
          "name": "studentAddress",
          "type": "address"
        },
        {
          "indexed": false,
          "internalType": "string",
          "name": "documentName",
          "type": "string"
        },
        {
          "indexed": false,
          "internalType": "string",
          "name": "hashValue",
          "type": "string"
        },
        {
          "indexed": false,
          "internalType": "enum BGV.AccessType",
          "name": "access",
          "type": "uint8"
        }
      ],
      "name": "DocumentAdded",
      "type": "event"
    },
    {
      "anonymous": false,
      "inputs": [
        {
          "indexed": true,
          "internalType": "address",
          "name": "studentAddress",
          "type": "address"
        },
        {
          "indexed": false,
          "internalType": "string",
          "name": "name",
          "type": "string"
        },
        {
          "indexed": true,
          "internalType": "address",
          "name": "addedBy",
          "type": "address"
        }
      ],
      "name": "StudentAdded",
      "type": "event"
    },
    {
      "anonymous": false,
      "inputs": [
        {
          "indexed": true,
          "internalType": "address",
          "name": "universityAddress",
          "type": "address"
        },
        {
          "indexed": false,
          "internalType": "string",
          "name": "name",
          "type": "string"
        }
      ],
      "name": "UniversityAdded",
      "type": "event"
    },
    {
      "inputs": [
        {
          "internalType": "string",
          "name": "",
          "type": "string"
        }
      ],
      "name": "licenseNumbers",
      "outputs": [
        {
          "internalType": "bool",
          "name": "",
          "type": "bool"
        }
      ],
      "stateMutability": "view",
      "type": "function",
      "constant": true
    },
    {
      "inputs": [
        {
          "internalType": "address",
          "name": "",
          "type": "address"
        }
      ],
      "name": "students",
      "outputs": [
        {
          "internalType": "string",
          "name": "name",
          "type": "string"
        },
        {
          "internalType": "address",
          "name": "studentAddress",
          "type": "address"
        },
        {
          "internalType": "address",
          "name": "addedBy",
          "type": "address"
        }
      ],
      "stateMutability": "view",
      "type": "function",
      "constant": true
    },
    {
      "inputs": [
        {
          "internalType": "address",
          "name": "",
          "type": "address"
        }
      ],
      "name": "universities",
      "outputs": [
        {
          "internalType": "string",
          "name": "name",
          "type": "string"
        },
        {
          "internalType": "address",
          "name": "universityAddress",
          "type": "address"
        },
        {
          "internalType": "string",
          "name": "licenseNumber",
          "type": "string"
        },
        {
          "internalType": "bool",
          "name": "approvedByGovernment",
          "type": "bool"
        }
      ],
      "stateMutability": "view",
      "type": "function",
      "constant": true
    },
    {
      "inputs": [
        {
          "internalType": "address",
          "name": "",
          "type": "address"
        }
      ],
      "name": "universityAddresses",
      "outputs": [
        {
          "internalType": "bool",
          "name": "",
          "type": "bool"
        }
      ],
      "stateMutability": "view",
      "type": "function",
      "constant": true
    },
    {
      "inputs": [
        {
          "internalType": "string",
          "name": "_name",
          "type": "string"
        },
        {
          "internalType": "address",
          "name": "_studentAddress",
          "type": "address"
        }
      ],
      "name": "addStudent",
      "outputs": [],
      "stateMutability": "nonpayable",
      "type": "function"
    },
    {
      "inputs": [
        {
          "internalType": "address",
          "name": "_studentAddress",
          "type": "address"
        },
        {
          "internalType": "string",
          "name": "_documentName",
          "type": "string"
        },
        {
          "internalType": "string",
          "name": "_hashValue",
          "type": "string"
        },
        {
          "internalType": "enum BGV.AccessType",
          "name": "_access",
          "type": "uint8"
        }
      ],
      "name": "addDocumentToStudent",
      "outputs": [],
      "stateMutability": "nonpayable",
      "type": "function"
    },
    {
      "inputs": [
        {
          "internalType": "string",
          "name": "_name",
          "type": "string"
        },
        {
          "internalType": "address",
          "name": "_universityAddress",
          "type": "address"
        },
        {
          "internalType": "string",
          "name": "_licenseNumber",
          "type": "string"
        },
        {
          "internalType": "bool",
          "name": "_approvedByGovernment",
          "type": "bool"
        }
      ],
      "name": "addUniversity",
      "outputs": [],
      "stateMutability": "nonpayable",
      "type": "function"
    },
    {
      "inputs": [
        {
          "internalType": "address",
          "name": "_universityAddress",
          "type": "address"
        }
      ],
      "name": "isUniversityLegitimate",
      "outputs": [
        {
          "internalType": "bool",
          "name": "",
          "type": "bool"
        }
      ],
      "stateMutability": "view",
      "type": "function",
      "constant": true
    },
    {
      "inputs": [
        {
          "internalType": "address",
          "name": "_studentAddress",
          "type": "address"
        }
      ],
      "name": "getDocumentCount",
      "outputs": [
        {
          "internalType": "uint256",
          "name": "",
          "type": "uint256"
        }
      ],
      "stateMutability": "view",
      "type": "function",
      "constant": true
    },
    {
      "inputs": [
        {
          "internalType": "address",
          "name": "_studentAddress",
          "type": "address"
        },
        {
          "internalType": "string",
          "name": "_hashValue",
          "type": "string"
        }
      ],
      "name": "getDocumentDetails",
      "outputs": [
        {
          "internalType": "string",
          "name": "",
          "type": "string"
        },
        {
          "internalType": "string",
          "name": "",
          "type": "string"
        },
        {
          "internalType": "enum BGV.AccessType",
          "name": "",
          "type": "uint8"
        }
      ],
      "stateMutability": "view",
      "type": "function",
      "constant": true
    },
    {
      "inputs": [
        {
          "internalType": "address",
          "name": "_studentAddress",
          "type": "address"
        },
        {
          "internalType": "string",
          "name": "_hashValue",
          "type": "string"
        },
        {
          "internalType": "enum BGV.AccessType",
          "name": "_newAccessType",
          "type": "uint8"
        }
      ],
      "name": "changeDocumentAccess",
      "outputs": [],
      "stateMutability": "nonpayable",
      "type": "function"
    }
  ],
  "bytecode": "0x608060405234801561001057600080fd5b5061241a806100206000396000f3fe608060405234801561001057600080fd5b50600436106100a95760003560e01c806353977e541161007157806353977e54146101785780636166333f146101a857806380409a99146101c4578063a6c807a9146101e0578063d1924ede14610212578063f099556014610242576100a9565b806310468c2f146100ae57806333dc49a3146100ca5780633b993fe0146100fc5780634a9626d51461012c57806351e6745814610148575b600080fd5b6100c860048036038101906100c39190611a0b565b610275565b005b6100e460048036038101906100df919061187c565b61057b565b6040516100f393929190611feb565b60405180910390f35b61011660048036038101906101119190611853565b6107b3565b6040516101239190612170565b60405180910390f35b610146600480360381019061014191906118d0565b610801565b005b610162600480360381019061015d9190611853565b610b9c565b60405161016f9190611eed565b60405180910390f35b610192600480360381019061018d9190611853565b610bbc565b60405161019f9190611eed565b60405180910390f35b6101c260048036038101906101bd9190611a5f565b610c6f565b005b6101de60048036038101906101d99190611937565b610f60565b005b6101fa60048036038101906101f59190611853565b611474565b60405161020993929190611f2a565b60405180910390f35b61022c600480360381019061022791906119ca565b611566565b6040516102399190611eed565b60405180910390f35b61025c60048036038101906102579190611853565b61159c565b60405161026c9493929190611f68565b60405180910390f35b33600160008273ffffffffffffffffffffffffffffffffffffffff1673ffffffffffffffffffffffffffffffffffffffff16815260200190815260200160002060030160009054906101000a900460ff16801561032057506000600160008373ffffffffffffffffffffffffffffffffffffffff1673ffffffffffffffffffffffffffffffffffffffff168152602001908152602001600020600201805461031c906122c2565b9050115b61035f576040517f08c379a000000000000000000000000000000000000000000000000000000000815260040161035690612070565b60405180910390fd5b600073ffffffffffffffffffffffffffffffffffffffff166000808473ffffffffffffffffffffffffffffffffffffffff1673ffffffffffffffffffffffffffffffffffffffff16815260200190815260200160002060010160009054906101000a900473ffffffffffffffffffffffffffffffffffffffff1673ffffffffffffffffffffffffffffffffffffffff161461042f576040517f08c379a0000000000000000000000000000000000000000000000000000000008152600401610426906120f0565b60405180910390fd5b60008060008473ffffffffffffffffffffffffffffffffffffffff1673ffffffffffffffffffffffffffffffffffffffff168152602001908152602001600020905083816000019080519060200190610489929190611709565b50828160010160006101000a81548173ffffffffffffffffffffffffffffffffffffffff021916908373ffffffffffffffffffffffffffffffffffffffff160217905550338160020160006101000a81548173ffffffffffffffffffffffffffffffffffffffff021916908373ffffffffffffffffffffffffffffffffffffffff1602179055503373ffffffffffffffffffffffffffffffffffffffff168373ffffffffffffffffffffffffffffffffffffffff167fc902157d0d935238ddf40055643d8152eef5670ddb5272f02869e8dbeaf5dcd68660405161056d9190611f08565b60405180910390a350505050565b6060806000806000808773ffffffffffffffffffffffffffffffffffffffff1673ffffffffffffffffffffffffffffffffffffffff168152602001908152602001600020600301856040516105d09190611ed6565b90815260200160405180910390206040518060600160405290816000820180546105f9906122c2565b80601f0160208091040260200160405190810160405280929190818152602001828054610625906122c2565b80156106725780601f1061064757610100808354040283529160200191610672565b820191906000526020600020905b81548152906001019060200180831161065557829003601f168201915b5050505050815260200160018201805461068b906122c2565b80601f01602080910402602001604051908101604052809291908181526020018280546106b7906122c2565b80156107045780601f106106d957610100808354040283529160200191610704565b820191906000526020600020905b8154815290600101906020018083116106e757829003601f168201915b505050505081526020016002820160009054906101000a900460ff166002811115610758577f4e487b7100000000000000000000000000000000000000000000000000000000600052602160045260246000fd5b6002811115610790577f4e487b7100000000000000000000000000000000000000000000000000000000600052602160045260246000fd5b815250509050806000015181602001518260400151935093509350509250925092565b60008060008373ffffffffffffffffffffffffffffffffffffffff1673ffffffffffffffffffffffffffffffffffffffff168152602001908152602001600020600401805490509050919050565b600073ffffffffffffffffffffffffffffffffffffffff166000808573ffffffffffffffffffffffffffffffffffffffff1673ffffffffffffffffffffffffffffffffffffffff16815260200190815260200160002060010160009054906101000a900473ffffffffffffffffffffffffffffffffffffffff1673ffffffffffffffffffffffffffffffffffffffff1614156108d2576040517f08c379a00000000000000000000000000000000000000000000000000000000081526004016108c9906120b0565b60405180910390fd5b8273ffffffffffffffffffffffffffffffffffffffff163373ffffffffffffffffffffffffffffffffffffffff1614610940576040517f08c379a000000000000000000000000000000000000000000000000000000000815260040161093790612130565b60405180910390fd5b6000600281111561097a577f4e487b7100000000000000000000000000000000000000000000000000000000600052602160045260246000fd5b60028111156109b2577f4e487b7100000000000000000000000000000000000000000000000000000000600052602160045260246000fd5b6000808573ffffffffffffffffffffffffffffffffffffffff1673ffffffffffffffffffffffffffffffffffffffff16815260200190815260200160002060030183604051610a019190611ed6565b908152602001604051809103902060020160009054906101000a900460ff166002811115610a58577f4e487b7100000000000000000000000000000000000000000000000000000000600052602160045260246000fd5b1415610a99576040517f08c379a0000000000000000000000000000000000000000000000000000000008152600401610a9090612150565b60405180910390fd5b806000808573ffffffffffffffffffffffffffffffffffffffff1673ffffffffffffffffffffffffffffffffffffffff16815260200190815260200160002060030183604051610ae99190611ed6565b908152602001604051809103902060020160006101000a81548160ff02191690836002811115610b42577f4e487b7100000000000000000000000000000000000000000000000000000000600052602160045260246000fd5b02179055508273ffffffffffffffffffffffffffffffffffffffff167fe3e944fc29fcec957aa4c092fd5a446e596a5f82f9a1f418c68fa44ddf65e5f28383604051610b8f929190611fbb565b60405180910390a2505050565b60036020528060005260406000206000915054906101000a900460ff1681565b6000600160008373ffffffffffffffffffffffffffffffffffffffff1673ffffffffffffffffffffffffffffffffffffffff16815260200190815260200160002060030160009054906101000a900460ff168015610c6857506000600160008473ffffffffffffffffffffffffffffffffffffffff1673ffffffffffffffffffffffffffffffffffffffff1681526020019081526020016000206002018054610c64906122c2565b9050115b9050919050565b600360008473ffffffffffffffffffffffffffffffffffffffff1673ffffffffffffffffffffffffffffffffffffffff16815260200190815260200160002060009054906101000a900460ff1615610cfc576040517f08c379a0000000000000000000000000000000000000000000000000000000008152600401610cf390612050565b60405180910390fd5b600282604051610d0c9190611ed6565b908152602001604051809103902060009054906101000a900460ff1615610d68576040517f08c379a0000000000000000000000000000000000000000000000000000000008152600401610d5f90612110565b60405180910390fd5b80610da8576040517f08c379a0000000000000000000000000000000000000000000000000000000008152600401610d9f906120d0565b60405180910390fd5b6000600160008573ffffffffffffffffffffffffffffffffffffffff1673ffffffffffffffffffffffffffffffffffffffff168152602001908152602001600020905084816000019080519060200190610e03929190611709565b50838160010160006101000a81548173ffffffffffffffffffffffffffffffffffffffff021916908373ffffffffffffffffffffffffffffffffffffffff16021790555082816002019080519060200190610e5f929190611709565b50818160030160006101000a81548160ff0219169083151502179055506001600284604051610e8e9190611ed6565b908152602001604051809103902060006101000a81548160ff0219169083151502179055506001600360008673ffffffffffffffffffffffffffffffffffffffff1673ffffffffffffffffffffffffffffffffffffffff16815260200190815260200160002060006101000a81548160ff0219169083151502179055508373ffffffffffffffffffffffffffffffffffffffff167fec1e06e5bcd47cc0ab9791be5856f0e0bab5a2be711f3f3fd979d4c694c7c1f986604051610f519190611f08565b60405180910390a25050505050565b600073ffffffffffffffffffffffffffffffffffffffff166000808673ffffffffffffffffffffffffffffffffffffffff1673ffffffffffffffffffffffffffffffffffffffff16815260200190815260200160002060010160009054906101000a900473ffffffffffffffffffffffffffffffffffffffff1673ffffffffffffffffffffffffffffffffffffffff161415611031576040517f08c379a0000000000000000000000000000000000000000000000000000000008152600401611028906120b0565b60405180910390fd5b6000808573ffffffffffffffffffffffffffffffffffffffff1673ffffffffffffffffffffffffffffffffffffffff16815260200190815260200160002060020160009054906101000a900473ffffffffffffffffffffffffffffffffffffffff1673ffffffffffffffffffffffffffffffffffffffff163373ffffffffffffffffffffffffffffffffffffffff1614611100576040517f08c379a00000000000000000000000000000000000000000000000000000000081526004016110f790612030565b60405180910390fd5b6000600281111561113a577f4e487b7100000000000000000000000000000000000000000000000000000000600052602160045260246000fd5b6002811115611172577f4e487b7100000000000000000000000000000000000000000000000000000000600052602160045260246000fd5b6000808673ffffffffffffffffffffffffffffffffffffffff1673ffffffffffffffffffffffffffffffffffffffff168152602001908152602001600020600301836040516111c19190611ed6565b908152602001604051809103902060020160009054906101000a900460ff166002811115611218577f4e487b7100000000000000000000000000000000000000000000000000000000600052602160045260246000fd5b14611258576040517f08c379a000000000000000000000000000000000000000000000000000000000815260040161124f90612090565b60405180910390fd5b600060405180606001604052808581526020018481526020018360028111156112aa577f4e487b7100000000000000000000000000000000000000000000000000000000600052602160045260246000fd5b8152509050806000808773ffffffffffffffffffffffffffffffffffffffff1673ffffffffffffffffffffffffffffffffffffffff168152602001908152602001600020600301846040516112ff9190611ed6565b90815260200160405180910390206000820151816000019080519060200190611329929190611709565b506020820151816001019080519060200190611346929190611709565b5060408201518160020160006101000a81548160ff02191690836002811115611398577f4e487b7100000000000000000000000000000000000000000000000000000000600052602160045260246000fd5b02179055509050506000808673ffffffffffffffffffffffffffffffffffffffff1673ffffffffffffffffffffffffffffffffffffffff1681526020019081526020016000206004018390806001815401808255809150506001900390600052602060002001600090919091909150908051906020019061141a929190611709565b508473ffffffffffffffffffffffffffffffffffffffff167f7e36441495113984545f29a9881ab6081c3c29c3ad9d8a38168758d2d7dbfc2585858560405161146593929190611feb565b60405180910390a25050505050565b6000602052806000526040600020600091509050806000018054611497906122c2565b80601f01602080910402602001604051908101604052809291908181526020018280546114c3906122c2565b80156115105780601f106114e557610100808354040283529160200191611510565b820191906000526020600020905b8154815290600101906020018083116114f357829003601f168201915b5050505050908060010160009054906101000a900473ffffffffffffffffffffffffffffffffffffffff16908060020160009054906101000a900473ffffffffffffffffffffffffffffffffffffffff16905083565b6002818051602081018201805184825260208301602085012081835280955050505050506000915054906101000a900460ff1681565b60016020528060005260406000206000915090508060000180546115bf906122c2565b80601f01602080910402602001604051908101604052809291908181526020018280546115eb906122c2565b80156116385780601f1061160d57610100808354040283529160200191611638565b820191906000526020600020905b81548152906001019060200180831161161b57829003601f168201915b5050505050908060010160009054906101000a900473ffffffffffffffffffffffffffffffffffffffff1690806002018054611673906122c2565b80601f016020809104026020016040519081016040528092919081815260200182805461169f906122c2565b80156116ec5780601f106116c1576101008083540402835291602001916116ec565b820191906000526020600020905b8154815290600101906020018083116116cf57829003601f168201915b5050505050908060030160009054906101000a900460ff16905084565b828054611715906122c2565b90600052602060002090601f016020900481019282611737576000855561177e565b82601f1061175057805160ff191683800117855561177e565b8280016001018555821561177e579182015b8281111561177d578251825591602001919060010190611762565b5b50905061178b919061178f565b5090565b5b808211156117a8576000816000905550600101611790565b5090565b60006117bf6117ba846121bc565b61218b565b9050828152602081018484840111156117d757600080fd5b6117e2848285612280565b509392505050565b6000813590506117f9816123a6565b92915050565b60008135905061180e816123bd565b92915050565b600081359050611823816123d4565b92915050565b600082601f83011261183a57600080fd5b813561184a8482602086016117ac565b91505092915050565b60006020828403121561186557600080fd5b6000611873848285016117ea565b91505092915050565b6000806040838503121561188f57600080fd5b600061189d858286016117ea565b925050602083013567ffffffffffffffff8111156118ba57600080fd5b6118c685828601611829565b9150509250929050565b6000806000606084860312156118e557600080fd5b60006118f3868287016117ea565b935050602084013567ffffffffffffffff81111561191057600080fd5b61191c86828701611829565b925050604061192d86828701611814565b9150509250925092565b6000806000806080858703121561194d57600080fd5b600061195b878288016117ea565b945050602085013567ffffffffffffffff81111561197857600080fd5b61198487828801611829565b935050604085013567ffffffffffffffff8111156119a157600080fd5b6119ad87828801611829565b92505060606119be87828801611814565b91505092959194509250565b6000602082840312156119dc57600080fd5b600082013567ffffffffffffffff8111156119f657600080fd5b611a0284828501611829565b91505092915050565b60008060408385031215611a1e57600080fd5b600083013567ffffffffffffffff811115611a3857600080fd5b611a4485828601611829565b9250506020611a55858286016117ea565b9150509250929050565b60008060008060808587031215611a7557600080fd5b600085013567ffffffffffffffff811115611a8f57600080fd5b611a9b87828801611829565b9450506020611aac878288016117ea565b935050604085013567ffffffffffffffff811115611ac957600080fd5b611ad587828801611829565b9250506060611ae6878288016117ff565b91505092959194509250565b611afb81612213565b82525050565b611b0a81612225565b82525050565b611b198161226e565b82525050565b6000611b2a826121ec565b611b3481856121f7565b9350611b4481856020860161228f565b611b4d81612381565b840191505092915050565b6000611b63826121ec565b611b6d8185612208565b9350611b7d81856020860161228f565b80840191505092915050565b6000611b96603c836121f7565b91507f4f6e6c792074686520756e69766572736974792074686174206164646564207460008301527f68652073747564656e742063616e2061646420646f63756d656e7473000000006020830152604082019050919050565b6000611bfc6021836121f7565b91507f556e6976657273697479206164647265737320616c726561647920657869737460008301527f73000000000000000000000000000000000000000000000000000000000000006020830152604082019050919050565b6000611c62602e836121f7565b91507f4f6e6c792061206c65676974696d61746520756e69766572736974792063616e60008301527f2061646420612073747564656e740000000000000000000000000000000000006020830152604082019050919050565b6000611cc86017836121f7565b91507f446f63756d656e7420616c7265616479206578697374730000000000000000006000830152602082019050919050565b6000611d086016836121f7565b91507f53747564656e7420646f6573206e6f74206578697374000000000000000000006000830152602082019050919050565b6000611d48602d836121f7565b91507f556e6976657273697479206d75737420626520617070726f766564206279207460008301527f686520676f7665726e6d656e74000000000000000000000000000000000000006020830152604082019050919050565b6000611dae6016836121f7565b91507f53747564656e7420616c726561647920657869737473000000000000000000006000830152602082019050919050565b6000611dee601d836121f7565b91507f4c6963656e7365206e756d62657220616c7265616479206578697374730000006000830152602082019050919050565b6000611e2e602b836121f7565b91507f4f6e6c79207468652073747564656e742063616e206368616e676520646f637560008301527f6d656e74206163636573730000000000000000000000000000000000000000006020830152604082019050919050565b6000611e946017836121f7565b91507f446f63756d656e7420646f6573206e6f742065786973740000000000000000006000830152602082019050919050565b611ed081612264565b82525050565b6000611ee28284611b58565b915081905092915050565b6000602082019050611f026000830184611b01565b92915050565b60006020820190508181036000830152611f228184611b1f565b905092915050565b60006060820190508181036000830152611f448186611b1f565b9050611f536020830185611af2565b611f606040830184611af2565b949350505050565b60006080820190508181036000830152611f828187611b1f565b9050611f916020830186611af2565b8181036040830152611fa38185611b1f565b9050611fb26060830184611b01565b95945050505050565b60006040820190508181036000830152611fd58185611b1f565b9050611fe46020830184611b10565b9392505050565b600060608201905081810360008301526120058186611b1f565b905081810360208301526120198185611b1f565b90506120286040830184611b10565b949350505050565b6000602082019050818103600083015261204981611b89565b9050919050565b6000602082019050818103600083015261206981611bef565b9050919050565b6000602082019050818103600083015261208981611c55565b9050919050565b600060208201905081810360008301526120a981611cbb565b9050919050565b600060208201905081810360008301526120c981611cfb565b9050919050565b600060208201905081810360008301526120e981611d3b565b9050919050565b6000602082019050818103600083015261210981611da1565b9050919050565b6000602082019050818103600083015261212981611de1565b9050919050565b6000602082019050818103600083015261214981611e21565b9050919050565b6000602082019050818103600083015261216981611e87565b9050919050565b60006020820190506121856000830184611ec7565b92915050565b6000604051905081810181811067ffffffffffffffff821117156121b2576121b1612352565b5b8060405250919050565b600067ffffffffffffffff8211156121d7576121d6612352565b5b601f19601f8301169050602081019050919050565b600081519050919050565b600082825260208201905092915050565b600081905092915050565b600061221e82612244565b9050919050565b60008115159050919050565b600081905061223f82612392565b919050565b600073ffffffffffffffffffffffffffffffffffffffff82169050919050565b6000819050919050565b600061227982612231565b9050919050565b82818337600083830152505050565b60005b838110156122ad578082015181840152602081019050612292565b838111156122bc576000848401525b50505050565b600060028204905060018216806122da57607f821691505b602082108114156122ee576122ed612323565b5b50919050565b7f4e487b7100000000000000000000000000000000000000000000000000000000600052602160045260246000fd5b7f4e487b7100000000000000000000000000000000000000000000000000000000600052602260045260246000fd5b7f4e487b7100000000000000000000000000000000000000000000000000000000600052604160045260246000fd5b6000601f19601f8301169050919050565b600381106123a3576123a26122f4565b5b50565b6123af81612213565b81146123ba57600080fd5b50565b6123c681612225565b81146123d157600080fd5b50565b600381106123e157600080fd5b5056fea26469706673582212205ceebce09dcee066082200a0e5d116bb2a23607ab9d85835902f002cfa83dc4a64736f6c63430008000033",
  "immutableReferences": {},
  "source": "// SPDX-License-Identifier: MIT\r\npragma solidity ^0.8.0;\r\n\r\ncontract BGV {\r\n    // Enum to represent document access control\r\n    enum AccessType { CompanyOnly, StudentOnly, Both }\r\n\r\n    // Struct to represent a document\r\n    struct Document {\r\n        string name;\r\n        string hashValue;\r\n        AccessType access;\r\n    }\r\n\r\n    // Struct to represent a student\r\n    struct Student {\r\n        string name;\r\n        address studentAddress;\r\n        address addedBy; // Address of the university that added the student\r\n        mapping(string => Document) documents; // Mapping of hashValue to Document\r\n        string[] documentKeys; // Array to store keys of documents mapping\r\n    }\r\n\r\n    // Struct to represent a university\r\n    struct University {\r\n        string name;\r\n        address universityAddress;\r\n        string licenseNumber;\r\n        bool approvedByGovernment;\r\n    }\r\n\r\n    // Mapping to store students by their Ethereum address\r\n    mapping(address => Student) public students;\r\n\r\n    // Mapping to store universities by their Ethereum address\r\n    mapping(address => University) public universities;\r\n\r\n    // Mapping to store license numbers to prevent duplicates\r\n    mapping(string => bool) public licenseNumbers;\r\n\r\n    // Mapping to store university addresses to prevent duplicates\r\n    mapping(address => bool) public universityAddresses;\r\n\r\n    // Event to emit when a new student is added\r\n    event StudentAdded(address indexed studentAddress, string name, address indexed addedBy);\r\n\r\n    // Event to emit when a new document is added to a student\r\n    event DocumentAdded(address indexed studentAddress, string documentName, string hashValue, AccessType access);\r\n\r\n    // Event to emit when a new university is added\r\n    event UniversityAdded(address indexed universityAddress, string name);\r\n\r\n    // Event to emit when document access type is changed\r\n    event DocumentAccessChanged(address indexed studentAddress, string hashValue, AccessType newAccessType);\r\n\r\n    // Modifier to ensure only a legitimate university can add a student\r\n    modifier onlyLegitimateUniversity(address _universityAddress) {\r\n        require(universities[_universityAddress].approvedByGovernment && bytes(universities[_universityAddress].licenseNumber).length > 0, \"Only a legitimate university can add a student\");\r\n        _;\r\n    }\r\n\r\n    // Function to add a new student\r\n    function addStudent(string memory _name, address _studentAddress) public onlyLegitimateUniversity(msg.sender) {\r\n        // Ensure the student does not already exist\r\n        require(students[_studentAddress].studentAddress == address(0), \"Student already exists\");\r\n\r\n        // Create a new student\r\n        Student storage newStudent = students[_studentAddress];\r\n        newStudent.name = _name;\r\n        newStudent.studentAddress = _studentAddress;\r\n        newStudent.addedBy = msg.sender; // Set the university that added the student\r\n\r\n        // Emit an event to notify that a new student has been added\r\n        emit StudentAdded(_studentAddress, _name, msg.sender);\r\n    }\r\n\r\n    // Function to add a document to an existing student\r\n    function addDocumentToStudent(address _studentAddress, string memory _documentName, string memory _hashValue, AccessType _access) public {\r\n        // Ensure the student exists\r\n        require(students[_studentAddress].studentAddress != address(0), \"Student does not exist\");\r\n\r\n        // Ensure the caller is the university that added the student\r\n        require(msg.sender == students[_studentAddress].addedBy, \"Only the university that added the student can add documents\");\r\n\r\n        // Check if a document with the same hash value already exists\r\n        require(students[_studentAddress].documents[_hashValue].access == AccessType(0), \"Document already exists\");\r\n\r\n        // Create a new document\r\n        Document memory newDocument = Document({\r\n            name: _documentName,\r\n            hashValue: _hashValue,\r\n            access: _access\r\n        });\r\n\r\n        // Add the document to the student's mapping\r\n        students[_studentAddress].documents[_hashValue] = newDocument;\r\n        students[_studentAddress].documentKeys.push(_hashValue); // Add the key to documentKeys array\r\n\r\n        // Emit an event to notify that a new document has been added to the student\r\n        emit DocumentAdded(_studentAddress, _documentName, _hashValue, _access);\r\n    }\r\n\r\n    // Function to add a new university\r\n    function addUniversity(string memory _name, address _universityAddress, string memory _licenseNumber, bool _approvedByGovernment) public {\r\n        // Ensure the university address is unique\r\n        require(!universityAddresses[_universityAddress], \"University address already exists\");\r\n\r\n        // Ensure the license number is unique\r\n        require(!licenseNumbers[_licenseNumber], \"License number already exists\");\r\n\r\n        // Ensure the university is approved by the government\r\n        require(_approvedByGovernment, \"University must be approved by the government\");\r\n\r\n        // Create a new university\r\n        University storage newUniversity = universities[_universityAddress];\r\n        newUniversity.name = _name;\r\n        newUniversity.universityAddress = _universityAddress;\r\n        newUniversity.licenseNumber = _licenseNumber;\r\n        newUniversity.approvedByGovernment = _approvedByGovernment;\r\n\r\n        // Mark the license number and university address as used\r\n        licenseNumbers[_licenseNumber] = true;\r\n        universityAddresses[_universityAddress] = true;\r\n\r\n        // Emit an event to notify that a new university has been added\r\n        emit UniversityAdded(_universityAddress, _name);\r\n    }\r\n\r\n    // Function to verify if a university is legitimate\r\n    function isUniversityLegitimate(address _universityAddress) public view returns (bool) {\r\n        return universities[_universityAddress].approvedByGovernment && bytes(universities[_universityAddress].licenseNumber).length > 0;\r\n    }\r\n\r\n    // Function to get the count of documents for a student\r\n    function getDocumentCount(address _studentAddress) public view returns (uint) {\r\n        return students[_studentAddress].documentKeys.length;\r\n    }\r\n\r\n    // Function to get the details of a document for a student\r\n    function getDocumentDetails(address _studentAddress, string memory _hashValue) public view returns (string memory, string memory, AccessType) {\r\n        Document memory doc = students[_studentAddress].documents[_hashValue];\r\n        return (doc.name, doc.hashValue, doc.access);\r\n    }\r\n\r\n    // Function to change the access type of a document for a student\r\n    function changeDocumentAccess(address _studentAddress, string memory _hashValue, AccessType _newAccessType) public {\r\n        // Ensure the student exists\r\n        require(students[_studentAddress].studentAddress != address(0), \"Student does not exist\");\r\n\r\n        // Ensure the caller is the student who owns the document\r\n        require(msg.sender == _studentAddress, \"Only the student can change document access\");\r\n\r\n        // Ensure the document exists\r\n        require(students[_studentAddress].documents[_hashValue].access != AccessType(0), \"Document does not exist\");\r\n\r\n        // Update the document access type\r\n        students[_studentAddress].documents[_hashValue].access = _newAccessType;\r\n\r\n        // Emit an event to notify that document access has been changed\r\n        emit DocumentAccessChanged(_studentAddress, _hashValue, _newAccessType);\r\n    }\r\n}\r\n",
  "sourcePath": "C:\\Users\\91988\\Documents\\empverify\\contracts\\BGV.sol",
  "compiler": {
    "name": "solc",
    "version": "0.8.0+commit.c7dfd78e.Emscripten.clang"
  },
  "schemaVersion": "3.4.16",
  "updatedAt": "2024-03-31T22:47:00.996Z",
  "networkType": "ethereum",
  "devdoc": {
    "kind": "dev",
    "methods": {},
    "version": 1
  },
  "userdoc": {
    "kind": "user",
    "methods": {},
    "version": 1
  }
}