{
  "contractName": "BGV",
  "abi": [
    {
      "anonymous": false,
      "inputs": [
        {
          "indexed": true,
          "internalType": "address",
          "name": "studentAddress",
          "type": "address"
        },
        {
          "indexed": false,
          "internalType": "string",
          "name": "hashValue",
          "type": "string"
        },
        {
          "indexed": false,
          "internalType": "enum BGV.AccessType",
          "name": "newAccessType",
          "type": "uint8"
        }
      ],
      "name": "DocumentAccessChanged",
      "type": "event"
    },
    {
      "anonymous": false,
      "inputs": [
        {
          "indexed": true,
          "internalType": "address",
          "name": "studentAddress",
          "type": "address"
        },
        {
          "indexed": false,
          "internalType": "string",
          "name": "documentName",
          "type": "string"
        },
        {
          "indexed": false,
          "internalType": "string",
          "name": "hashValue",
          "type": "string"
        },
        {
          "indexed": false,
          "internalType": "enum BGV.AccessType",
          "name": "access",
          "type": "uint8"
        }
      ],
      "name": "DocumentAdded",
      "type": "event"
    },
    {
      "anonymous": false,
      "inputs": [
        {
          "indexed": true,
          "internalType": "address",
          "name": "studentAddress",
          "type": "address"
        },
        {
          "indexed": false,
          "internalType": "string",
          "name": "name",
          "type": "string"
        },
        {
          "indexed": true,
          "internalType": "address",
          "name": "addedBy",
          "type": "address"
        }
      ],
      "name": "StudentAdded",
      "type": "event"
    },
    {
      "anonymous": false,
      "inputs": [
        {
          "indexed": true,
          "internalType": "address",
          "name": "universityAddress",
          "type": "address"
        },
        {
          "indexed": false,
          "internalType": "string",
          "name": "name",
          "type": "string"
        }
      ],
      "name": "UniversityAdded",
      "type": "event"
    },
    {
      "anonymous": false,
      "inputs": [
        {
          "indexed": true,
          "internalType": "address",
          "name": "verifierAddress",
          "type": "address"
        },
        {
          "indexed": false,
          "internalType": "string",
          "name": "organizationName",
          "type": "string"
        }
      ],
      "name": "VerifierAdded",
      "type": "event"
    },
    {
      "anonymous": false,
      "inputs": [
        {
          "indexed": true,
          "internalType": "address",
          "name": "verifierAddress",
          "type": "address"
        },
        {
          "indexed": false,
          "internalType": "string",
          "name": "organizationName",
          "type": "string"
        }
      ],
      "name": "VerifierAdded",
      "type": "event"
    },
    {
      "inputs": [
        {
          "internalType": "string",
          "name": "",
          "type": "string"
        }
      ],
      "name": "licenseNumbers",
      "outputs": [
        {
          "internalType": "bool",
          "name": "",
          "type": "bool"
        }
      ],
      "stateMutability": "view",
      "type": "function",
      "constant": true
    },
    {
      "inputs": [
        {
          "internalType": "address",
          "name": "",
          "type": "address"
        }
      ],
      "name": "students",
      "outputs": [
        {
          "internalType": "string",
          "name": "name",
          "type": "string"
        },
        {
          "internalType": "address",
          "name": "studentAddress",
          "type": "address"
        },
        {
          "internalType": "address",
          "name": "addedBy",
          "type": "address"
        }
      ],
      "stateMutability": "view",
      "type": "function",
      "constant": true
    },
    {
      "inputs": [
        {
          "internalType": "address",
          "name": "",
          "type": "address"
        }
      ],
      "name": "universities",
      "outputs": [
        {
          "internalType": "string",
          "name": "name",
          "type": "string"
        },
        {
          "internalType": "address",
          "name": "universityAddress",
          "type": "address"
        },
        {
          "internalType": "string",
          "name": "licenseNumber",
          "type": "string"
        },
        {
          "internalType": "bool",
          "name": "approvedByGovernment",
          "type": "bool"
        }
      ],
      "stateMutability": "view",
      "type": "function",
      "constant": true
    },
    {
      "inputs": [
        {
          "internalType": "uint256",
          "name": "",
          "type": "uint256"
        }
      ],
      "name": "universityAddresses",
      "outputs": [
        {
          "internalType": "address",
          "name": "",
          "type": "address"
        }
      ],
      "stateMutability": "view",
      "type": "function",
      "constant": true
    },
    {
      "inputs": [
        {
          "internalType": "uint256",
          "name": "",
          "type": "uint256"
        }
      ],
      "name": "verifierAddresses",
      "outputs": [
        {
          "internalType": "address",
          "name": "",
          "type": "address"
        }
      ],
      "stateMutability": "view",
      "type": "function",
      "constant": true
    },
    {
      "inputs": [
        {
          "internalType": "address",
          "name": "",
          "type": "address"
        }
      ],
      "name": "verifiers",
      "outputs": [
        {
          "internalType": "string",
          "name": "organizationName",
          "type": "string"
        },
        {
          "internalType": "address",
          "name": "verifierAddress",
          "type": "address"
        }
      ],
      "stateMutability": "view",
      "type": "function",
      "constant": true
    },
    {
      "inputs": [
        {
          "internalType": "uint256",
          "name": "",
          "type": "uint256"
        }
      ],
      "name": "verifierAddresses",
      "outputs": [
        {
          "internalType": "address",
          "name": "",
          "type": "address"
        }
      ],
      "stateMutability": "view",
      "type": "function",
      "constant": true
    },
    {
      "inputs": [
        {
          "internalType": "address",
          "name": "",
          "type": "address"
        }
      ],
      "name": "verifiers",
      "outputs": [
        {
          "internalType": "string",
          "name": "organizationName",
          "type": "string"
        },
        {
          "internalType": "address",
          "name": "verifierAddress",
          "type": "address"
        }
      ],
      "stateMutability": "view",
      "type": "function",
      "constant": true
    },
    {
      "inputs": [
        {
          "internalType": "string",
          "name": "_name",
          "type": "string"
        },
        {
          "internalType": "address",
          "name": "_studentAddress",
          "type": "address"
        }
      ],
      "name": "addStudent",
      "outputs": [],
      "stateMutability": "nonpayable",
      "type": "function"
    },
    {
      "inputs": [
        {
          "internalType": "address",
          "name": "_studentAddress",
          "type": "address"
        },
        {
          "internalType": "string",
          "name": "_documentName",
          "type": "string"
        },
        {
          "internalType": "string",
          "name": "_hashValue",
          "type": "string"
        },
        {
          "internalType": "enum BGV.AccessType",
          "name": "_access",
          "type": "uint8"
        }
      ],
      "name": "addDocumentToStudent",
      "outputs": [],
      "stateMutability": "nonpayable",
      "type": "function"
    },
    {
      "inputs": [
        {
          "internalType": "string",
          "name": "_name",
          "type": "string"
        },
        {
          "internalType": "address",
          "name": "_universityAddress",
          "type": "address"
        },
        {
          "internalType": "string",
          "name": "_licenseNumber",
          "type": "string"
        },
        {
          "internalType": "bool",
          "name": "_approvedByGovernment",
          "type": "bool"
        }
      ],
      "name": "addUniversity",
      "outputs": [],
      "stateMutability": "nonpayable",
      "type": "function"
    },
    {
      "inputs": [
        {
          "internalType": "address",
          "name": "_universityAddress",
          "type": "address"
        }
      ],
      "name": "isUniversityLegitimate",
      "outputs": [
        {
          "internalType": "bool",
          "name": "",
          "type": "bool"
        }
      ],
      "stateMutability": "view",
      "type": "function",
      "constant": true
    },
    {
      "inputs": [
        {
          "internalType": "address",
          "name": "_studentAddress",
          "type": "address"
        }
      ],
      "name": "getDocumentCount",
      "outputs": [
        {
          "internalType": "uint256",
          "name": "",
          "type": "uint256"
        }
      ],
      "stateMutability": "view",
      "type": "function",
      "constant": true
    },
    {
      "inputs": [
        {
          "internalType": "address",
          "name": "_studentAddress",
          "type": "address"
        },
        {
          "internalType": "string",
          "name": "_hashValue",
          "type": "string"
        }
      ],
      "name": "getDocumentDetails",
      "outputs": [
        {
          "internalType": "string",
          "name": "",
          "type": "string"
        },
        {
          "internalType": "string",
          "name": "",
          "type": "string"
        },
        {
          "internalType": "enum BGV.AccessType",
          "name": "",
          "type": "uint8"
        }
      ],
      "stateMutability": "view",
      "type": "function",
      "constant": true
    },
    {
      "inputs": [
        {
          "internalType": "address",
          "name": "_studentAddress",
          "type": "address"
        },
        {
          "internalType": "string",
          "name": "_hashValue",
          "type": "string"
        },
        {
          "internalType": "enum BGV.AccessType",
          "name": "_newAccessType",
          "type": "uint8"
        }
      ],
      "name": "changeDocumentAccess",
      "outputs": [],
      "stateMutability": "nonpayable",
      "type": "function"
    },
    {
      "inputs": [],
      "name": "getAllUniversities",
      "outputs": [
        {
          "components": [
            {
              "internalType": "string",
              "name": "name",
              "type": "string"
            },
            {
              "internalType": "address",
              "name": "universityAddress",
              "type": "address"
            },
            {
              "internalType": "string",
              "name": "licenseNumber",
              "type": "string"
            },
            {
              "internalType": "bool",
              "name": "approvedByGovernment",
              "type": "bool"
            }
          ],
          "internalType": "struct BGV.University[]",
          "name": "",
          "type": "tuple[]"
        }
      ],
      "stateMutability": "view",
      "type": "function",
      "constant": true
    }
  ],
  "bytecode": "0x608060405234801561001057600080fd5b50612f03806100206000396000f3fe608060405234801561001057600080fd5b50600436106100f55760003560e01c80636166333f11610097578063d1924ede11610066578063d1924ede146102ac578063e70cc6eb146102dc578063f0995560146102fa578063f597d9941461032d576100f5565b80636166333f1461021257806380409a991461022e578063a6c807a91461024a578063b5ab682d1461027c576100f5565b8063393619e8116100d3578063393619e8146101785780633b993fe0146101965780634a9626d5146101c657806353977e54146101e2576100f5565b806310468c2f146100fa57806333dc49a31461011657806334ed269414610148575b600080fd5b610114600480360381019061010f919061213c565b61034b565b005b610130600480360381019061012b9190611fad565b6105c9565b60405161013f939291906129a9565b60405180910390f35b610162600480360381019061015d9190612223565b610801565b60405161016f919061282a565b60405180910390f35b610180610840565b60405161018d9190612867565b60405180910390f35b6101b060048036038101906101ab9190611f84565b610a5c565b6040516101bd9190612b0e565b60405180910390f35b6101e060048036038101906101db9190612001565b610aaa565b005b6101fc60048036038101906101f79190611f84565b610e45565b60405161020991906128ab565b60405180910390f35b61022c60048036038101906102279190612190565b610ef8565b005b61024860048036038101906102439190612068565b611238565b005b610264600480360381019061025f9190611f84565b61174c565b604051610273939291906128e8565b60405180910390f35b61029660048036038101906102919190612223565b61183e565b6040516102a3919061282a565b60405180910390f35b6102c660048036038101906102c191906120fb565b61187d565b6040516102d391906128ab565b60405180910390f35b6102e46118b3565b6040516102f19190612845565b60405180910390f35b610314600480360381019061030f9190611f84565b611941565b6040516103249493929190612926565b60405180910390f35b610335611aae565b6040516103429190612889565b60405180910390f35b600073ffffffffffffffffffffffffffffffffffffffff166000808373ffffffffffffffffffffffffffffffffffffffff1673ffffffffffffffffffffffffffffffffffffffff16815260200190815260200160002060010160009054906101000a900473ffffffffffffffffffffffffffffffffffffffff1673ffffffffffffffffffffffffffffffffffffffff161461041b576040517f08c379a000000000000000000000000000000000000000000000000000000000815260040161041290612a8e565b60405180910390fd5b60008060008373ffffffffffffffffffffffffffffffffffffffff1673ffffffffffffffffffffffffffffffffffffffff168152602001908152602001600020905082816000019080519060200190610475929190611de5565b50818160010160006101000a81548173ffffffffffffffffffffffffffffffffffffffff021916908373ffffffffffffffffffffffffffffffffffffffff160217905550338160020160006101000a81548173ffffffffffffffffffffffffffffffffffffffff021916908373ffffffffffffffffffffffffffffffffffffffff1602179055506004829080600181540180825580915050600190039060005260206000200160009091909190916101000a81548173ffffffffffffffffffffffffffffffffffffffff021916908373ffffffffffffffffffffffffffffffffffffffff1602179055503373ffffffffffffffffffffffffffffffffffffffff168273ffffffffffffffffffffffffffffffffffffffff167fc902157d0d935238ddf40055643d8152eef5670ddb5272f02869e8dbeaf5dcd6856040516105bc91906128c6565b60405180910390a3505050565b6060806000806000808773ffffffffffffffffffffffffffffffffffffffff1673ffffffffffffffffffffffffffffffffffffffff1681526020019081526020016000206003018560405161061e9190612813565b908152602001604051809103902060405180606001604052908160008201805461064790612d1c565b80601f016020809104026020016040519081016040528092919081815260200182805461067390612d1c565b80156106c05780601f10610695576101008083540402835291602001916106c0565b820191906000526020600020905b8154815290600101906020018083116106a357829003601f168201915b505050505081526020016001820180546106d990612d1c565b80601f016020809104026020016040519081016040528092919081815260200182805461070590612d1c565b80156107525780601f1061072757610100808354040283529160200191610752565b820191906000526020600020905b81548152906001019060200180831161073557829003601f168201915b505050505081526020016002820160009054906101000a900460ff1660028111156107a6577f4e487b7100000000000000000000000000000000000000000000000000000000600052602160045260246000fd5b60028111156107de577f4e487b7100000000000000000000000000000000000000000000000000000000600052602160045260246000fd5b815250509050806000015181602001518260400151935093509350509250925092565b6003818154811061081157600080fd5b906000526020600020016000915054906101000a900473ffffffffffffffffffffffffffffffffffffffff1681565b6060600060048054905067ffffffffffffffff811115610889577f4e487b7100000000000000000000000000000000000000000000000000000000600052604160045260246000fd5b6040519080825280602002602001820160405280156108bc57816020015b60608152602001906001900390816108a75790505b50905060005b600480549050811015610a54576000806004838154811061090c577f4e487b7100000000000000000000000000000000000000000000000000000000600052603260045260246000fd5b9060005260206000200160009054906101000a900473ffffffffffffffffffffffffffffffffffffffff1673ffffffffffffffffffffffffffffffffffffffff1673ffffffffffffffffffffffffffffffffffffffff168152602001908152602001600020600001805461097f90612d1c565b80601f01602080910402602001604051908101604052809291908181526020018280546109ab90612d1c565b80156109f85780601f106109cd576101008083540402835291602001916109f8565b820191906000526020600020905b8154815290600101906020018083116109db57829003601f168201915b5050505050828281518110610a36577f4e487b7100000000000000000000000000000000000000000000000000000000600052603260045260246000fd5b60200260200101819052508080610a4c90612d4e565b9150506108c2565b508091505090565b60008060008373ffffffffffffffffffffffffffffffffffffffff1673ffffffffffffffffffffffffffffffffffffffff168152602001908152602001600020600401805490509050919050565b600073ffffffffffffffffffffffffffffffffffffffff166000808573ffffffffffffffffffffffffffffffffffffffff1673ffffffffffffffffffffffffffffffffffffffff16815260200190815260200160002060010160009054906101000a900473ffffffffffffffffffffffffffffffffffffffff1673ffffffffffffffffffffffffffffffffffffffff161415610b7b576040517f08c379a0000000000000000000000000000000000000000000000000000000008152600401610b7290612a4e565b60405180910390fd5b8273ffffffffffffffffffffffffffffffffffffffff163373ffffffffffffffffffffffffffffffffffffffff1614610be9576040517f08c379a0000000000000000000000000000000000000000000000000000000008152600401610be090612ace565b60405180910390fd5b60006002811115610c23577f4e487b7100000000000000000000000000000000000000000000000000000000600052602160045260246000fd5b6002811115610c5b577f4e487b7100000000000000000000000000000000000000000000000000000000600052602160045260246000fd5b6000808573ffffffffffffffffffffffffffffffffffffffff1673ffffffffffffffffffffffffffffffffffffffff16815260200190815260200160002060030183604051610caa9190612813565b908152602001604051809103902060020160009054906101000a900460ff166002811115610d01577f4e487b7100000000000000000000000000000000000000000000000000000000600052602160045260246000fd5b1415610d42576040517f08c379a0000000000000000000000000000000000000000000000000000000008152600401610d3990612aee565b60405180910390fd5b806000808573ffffffffffffffffffffffffffffffffffffffff1673ffffffffffffffffffffffffffffffffffffffff16815260200190815260200160002060030183604051610d929190612813565b908152602001604051809103902060020160006101000a81548160ff02191690836002811115610deb577f4e487b7100000000000000000000000000000000000000000000000000000000600052602160045260246000fd5b02179055508273ffffffffffffffffffffffffffffffffffffffff167fe3e944fc29fcec957aa4c092fd5a446e596a5f82f9a1f418c68fa44ddf65e5f28383604051610e38929190612979565b60405180910390a2505050565b6000600160008373ffffffffffffffffffffffffffffffffffffffff1673ffffffffffffffffffffffffffffffffffffffff16815260200190815260200160002060030160009054906101000a900460ff168015610ef157506000600160008473ffffffffffffffffffffffffffffffffffffffff1673ffffffffffffffffffffffffffffffffffffffff1681526020019081526020016000206002018054610eed90612d1c565b9050115b9050919050565b600073ffffffffffffffffffffffffffffffffffffffff16600160008573ffffffffffffffffffffffffffffffffffffffff1673ffffffffffffffffffffffffffffffffffffffff16815260200190815260200160002060010160009054906101000a900473ffffffffffffffffffffffffffffffffffffffff1673ffffffffffffffffffffffffffffffffffffffff1614610fc9576040517f08c379a0000000000000000000000000000000000000000000000000000000008152600401610fc090612a0e565b60405180910390fd5b600282604051610fd99190612813565b908152602001604051809103902060009054906101000a900460ff1615611035576040517f08c379a000000000000000000000000000000000000000000000000000000000815260040161102c90612aae565b60405180910390fd5b80611075576040517f08c379a000000000000000000000000000000000000000000000000000000000815260040161106c90612a6e565b60405180910390fd5b6000600160008573ffffffffffffffffffffffffffffffffffffffff1673ffffffffffffffffffffffffffffffffffffffff1681526020019081526020016000209050848160000190805190602001906110d0929190611de5565b50838160010160006101000a81548173ffffffffffffffffffffffffffffffffffffffff021916908373ffffffffffffffffffffffffffffffffffffffff1602179055508281600201908051906020019061112c929190611de5565b50818160030160006101000a81548160ff0219169083151502179055506003849080600181540180825580915050600190039060005260206000200160009091909190916101000a81548173ffffffffffffffffffffffffffffffffffffffff021916908373ffffffffffffffffffffffffffffffffffffffff16021790555060016002846040516111be9190612813565b908152602001604051809103902060006101000a81548160ff0219169083151502179055508373ffffffffffffffffffffffffffffffffffffffff167fec1e06e5bcd47cc0ab9791be5856f0e0bab5a2be711f3f3fd979d4c694c7c1f98660405161122991906128c6565b60405180910390a25050505050565b600073ffffffffffffffffffffffffffffffffffffffff166000808673ffffffffffffffffffffffffffffffffffffffff1673ffffffffffffffffffffffffffffffffffffffff16815260200190815260200160002060010160009054906101000a900473ffffffffffffffffffffffffffffffffffffffff1673ffffffffffffffffffffffffffffffffffffffff161415611309576040517f08c379a000000000000000000000000000000000000000000000000000000000815260040161130090612a4e565b60405180910390fd5b6000808573ffffffffffffffffffffffffffffffffffffffff1673ffffffffffffffffffffffffffffffffffffffff16815260200190815260200160002060020160009054906101000a900473ffffffffffffffffffffffffffffffffffffffff1673ffffffffffffffffffffffffffffffffffffffff163373ffffffffffffffffffffffffffffffffffffffff16146113d8576040517f08c379a00000000000000000000000000000000000000000000000000000000081526004016113cf906129ee565b60405180910390fd5b60006002811115611412577f4e487b7100000000000000000000000000000000000000000000000000000000600052602160045260246000fd5b600281111561144a577f4e487b7100000000000000000000000000000000000000000000000000000000600052602160045260246000fd5b6000808673ffffffffffffffffffffffffffffffffffffffff1673ffffffffffffffffffffffffffffffffffffffff168152602001908152602001600020600301836040516114999190612813565b908152602001604051809103902060020160009054906101000a900460ff1660028111156114f0577f4e487b7100000000000000000000000000000000000000000000000000000000600052602160045260246000fd5b14611530576040517f08c379a000000000000000000000000000000000000000000000000000000000815260040161152790612a2e565b60405180910390fd5b60006040518060600160405280858152602001848152602001836002811115611582577f4e487b7100000000000000000000000000000000000000000000000000000000600052602160045260246000fd5b8152509050806000808773ffffffffffffffffffffffffffffffffffffffff1673ffffffffffffffffffffffffffffffffffffffff168152602001908152602001600020600301846040516115d79190612813565b90815260200160405180910390206000820151816000019080519060200190611601929190611de5565b50602082015181600101908051906020019061161e929190611de5565b5060408201518160020160006101000a81548160ff02191690836002811115611670577f4e487b7100000000000000000000000000000000000000000000000000000000600052602160045260246000fd5b02179055509050506000808673ffffffffffffffffffffffffffffffffffffffff1673ffffffffffffffffffffffffffffffffffffffff168152602001908152602001600020600401839080600181540180825580915050600190039060005260206000200160009091909190915090805190602001906116f2929190611de5565b508473ffffffffffffffffffffffffffffffffffffffff167f7e36441495113984545f29a9881ab6081c3c29c3ad9d8a38168758d2d7dbfc2585858560405161173d939291906129a9565b60405180910390a25050505050565b600060205280600052604060002060009150905080600001805461176f90612d1c565b80601f016020809104026020016040519081016040528092919081815260200182805461179b90612d1c565b80156117e85780601f106117bd576101008083540402835291602001916117e8565b820191906000526020600020905b8154815290600101906020018083116117cb57829003601f168201915b5050505050908060010160009054906101000a900473ffffffffffffffffffffffffffffffffffffffff16908060020160009054906101000a900473ffffffffffffffffffffffffffffffffffffffff16905083565b6004818154811061184e57600080fd5b906000526020600020016000915054906101000a900473ffffffffffffffffffffffffffffffffffffffff1681565b6002818051602081018201805184825260208301602085012081835280955050505050506000915054906101000a900460ff1681565b6060600480548060200260200160405190810160405280929190818152602001828054801561193757602002820191906000526020600020905b8160009054906101000a900473ffffffffffffffffffffffffffffffffffffffff1673ffffffffffffffffffffffffffffffffffffffff16815260200190600101908083116118ed575b5050505050905090565b600160205280600052604060002060009150905080600001805461196490612d1c565b80601f016020809104026020016040519081016040528092919081815260200182805461199090612d1c565b80156119dd5780601f106119b2576101008083540402835291602001916119dd565b820191906000526020600020905b8154815290600101906020018083116119c057829003601f168201915b5050505050908060010160009054906101000a900473ffffffffffffffffffffffffffffffffffffffff1690806002018054611a1890612d1c565b80601f0160208091040260200160405190810160405280929190818152602001828054611a4490612d1c565b8015611a915780601f10611a6657610100808354040283529160200191611a91565b820191906000526020600020905b815481529060010190602001808311611a7457829003601f168201915b5050505050908060030160009054906101000a900460ff16905084565b6060600060038054905067ffffffffffffffff811115611af7577f4e487b7100000000000000000000000000000000000000000000000000000000600052604160045260246000fd5b604051908082528060200260200182016040528015611b3057816020015b611b1d611e6b565b815260200190600190039081611b155790505b50905060005b600380549050811015611ddd576001600060038381548110611b81577f4e487b7100000000000000000000000000000000000000000000000000000000600052603260045260246000fd5b9060005260206000200160009054906101000a900473ffffffffffffffffffffffffffffffffffffffff1673ffffffffffffffffffffffffffffffffffffffff1673ffffffffffffffffffffffffffffffffffffffff168152602001908152602001600020604051806080016040529081600082018054611c0190612d1c565b80601f0160208091040260200160405190810160405280929190818152602001828054611c2d90612d1c565b8015611c7a5780601f10611c4f57610100808354040283529160200191611c7a565b820191906000526020600020905b815481529060010190602001808311611c5d57829003601f168201915b505050505081526020016001820160009054906101000a900473ffffffffffffffffffffffffffffffffffffffff1673ffffffffffffffffffffffffffffffffffffffff1673ffffffffffffffffffffffffffffffffffffffff168152602001600282018054611ce990612d1c565b80601f0160208091040260200160405190810160405280929190818152602001828054611d1590612d1c565b8015611d625780601f10611d3757610100808354040283529160200191611d62565b820191906000526020600020905b815481529060010190602001808311611d4557829003601f168201915b505050505081526020016003820160009054906101000a900460ff161515151581525050828281518110611dbf577f4e487b7100000000000000000000000000000000000000000000000000000000600052603260045260246000fd5b60200260200101819052508080611dd590612d4e565b915050611b36565b508091505090565b828054611df190612d1c565b90600052602060002090601f016020900481019282611e135760008555611e5a565b82601f10611e2c57805160ff1916838001178555611e5a565b82800160010185558215611e5a579182015b82811115611e59578251825591602001919060010190611e3e565b5b509050611e679190611eab565b5090565b604051806080016040528060608152602001600073ffffffffffffffffffffffffffffffffffffffff168152602001606081526020016000151581525090565b5b80821115611ec4576000816000905550600101611eac565b5090565b6000611edb611ed684612b5a565b612b29565b905082815260208101848484011115611ef357600080fd5b611efe848285612cda565b509392505050565b600081359050611f1581612e78565b92915050565b600081359050611f2a81612e8f565b92915050565b600081359050611f3f81612ea6565b92915050565b600082601f830112611f5657600080fd5b8135611f66848260208601611ec8565b91505092915050565b600081359050611f7e81612eb6565b92915050565b600060208284031215611f9657600080fd5b6000611fa484828501611f06565b91505092915050565b60008060408385031215611fc057600080fd5b6000611fce85828601611f06565b925050602083013567ffffffffffffffff811115611feb57600080fd5b611ff785828601611f45565b9150509250929050565b60008060006060848603121561201657600080fd5b600061202486828701611f06565b935050602084013567ffffffffffffffff81111561204157600080fd5b61204d86828701611f45565b925050604061205e86828701611f30565b9150509250925092565b6000806000806080858703121561207e57600080fd5b600061208c87828801611f06565b945050602085013567ffffffffffffffff8111156120a957600080fd5b6120b587828801611f45565b935050604085013567ffffffffffffffff8111156120d257600080fd5b6120de87828801611f45565b92505060606120ef87828801611f30565b91505092959194509250565b60006020828403121561210d57600080fd5b600082013567ffffffffffffffff81111561212757600080fd5b61213384828501611f45565b91505092915050565b6000806040838503121561214f57600080fd5b600083013567ffffffffffffffff81111561216957600080fd5b61217585828601611f45565b925050602061218685828601611f06565b9150509250929050565b600080600080608085870312156121a657600080fd5b600085013567ffffffffffffffff8111156121c057600080fd5b6121cc87828801611f45565b94505060206121dd87828801611f06565b935050604085013567ffffffffffffffff8111156121fa57600080fd5b61220687828801611f45565b925050606061221787828801611f1b565b91505092959194509250565b60006020828403121561223557600080fd5b600061224384828501611f6f565b91505092915050565b6000612258838361228c565b60208301905092915050565b6000612270838361241f565b905092915050565b6000612284838361279a565b905092915050565b61229581612c6d565b82525050565b6122a481612c6d565b82525050565b60006122b582612bba565b6122bf8185612c0d565b93506122ca83612b8a565b8060005b838110156122fb5781516122e2888261224c565b97506122ed83612be6565b9250506001810190506122ce565b5085935050505092915050565b600061231382612bc5565b61231d8185612c1e565b93508360208202850161232f85612b9a565b8060005b8581101561236b578484038952815161234c8582612264565b945061235783612bf3565b925060208a01995050600181019050612333565b50829750879550505050505092915050565b600061238882612bd0565b6123928185612c2f565b9350836020820285016123a485612baa565b8060005b858110156123e057848403895281516123c18582612278565b94506123cc83612c00565b925060208a019950506001810190506123a8565b50829750879550505050505092915050565b6123fb81612c7f565b82525050565b61240a81612c7f565b82525050565b61241981612cc8565b82525050565b600061242a82612bdb565b6124348185612c40565b9350612444818560208601612ce9565b61244d81612e53565b840191505092915050565b600061246382612bdb565b61246d8185612c51565b935061247d818560208601612ce9565b61248681612e53565b840191505092915050565b600061249c82612bdb565b6124a68185612c62565b93506124b6818560208601612ce9565b80840191505092915050565b60006124cf603c83612c51565b91507f4f6e6c792074686520756e69766572736974792074686174206164646564207460008301527f68652073747564656e742063616e2061646420646f63756d656e7473000000006020830152604082019050919050565b6000612535602183612c51565b91507f556e6976657273697479206164647265737320616c726561647920657869737460008301527f73000000000000000000000000000000000000000000000000000000000000006020830152604082019050919050565b600061259b601783612c51565b91507f446f63756d656e7420616c7265616479206578697374730000000000000000006000830152602082019050919050565b60006125db601683612c51565b91507f53747564656e7420646f6573206e6f74206578697374000000000000000000006000830152602082019050919050565b600061261b602d83612c51565b91507f556e6976657273697479206d75737420626520617070726f766564206279207460008301527f686520676f7665726e6d656e74000000000000000000000000000000000000006020830152604082019050919050565b6000612681601683612c51565b91507f53747564656e7420616c726561647920657869737473000000000000000000006000830152602082019050919050565b60006126c1601d83612c51565b91507f4c6963656e7365206e756d62657220616c7265616479206578697374730000006000830152602082019050919050565b6000612701602b83612c51565b91507f4f6e6c79207468652073747564656e742063616e206368616e676520646f637560008301527f6d656e74206163636573730000000000000000000000000000000000000000006020830152604082019050919050565b6000612767601783612c51565b91507f446f63756d656e7420646f6573206e6f742065786973740000000000000000006000830152602082019050919050565b600060808301600083015184820360008601526127b7828261241f565b91505060208301516127cc602086018261228c565b50604083015184820360408601526127e4828261241f565b91505060608301516127f960608601826123f2565b508091505092915050565b61280d81612cbe565b82525050565b600061281f8284612491565b915081905092915050565b600060208201905061283f600083018461229b565b92915050565b6000602082019050818103600083015261285f81846122aa565b905092915050565b600060208201905081810360008301526128818184612308565b905092915050565b600060208201905081810360008301526128a3818461237d565b905092915050565b60006020820190506128c06000830184612401565b92915050565b600060208201905081810360008301526128e08184612458565b905092915050565b600060608201905081810360008301526129028186612458565b9050612911602083018561229b565b61291e604083018461229b565b949350505050565b600060808201905081810360008301526129408187612458565b905061294f602083018661229b565b81810360408301526129618185612458565b90506129706060830184612401565b95945050505050565b600060408201905081810360008301526129938185612458565b90506129a26020830184612410565b9392505050565b600060608201905081810360008301526129c38186612458565b905081810360208301526129d78185612458565b90506129e66040830184612410565b949350505050565b60006020820190508181036000830152612a07816124c2565b9050919050565b60006020820190508181036000830152612a2781612528565b9050919050565b60006020820190508181036000830152612a478161258e565b9050919050565b60006020820190508181036000830152612a67816125ce565b9050919050565b60006020820190508181036000830152612a878161260e565b9050919050565b60006020820190508181036000830152612aa781612674565b9050919050565b60006020820190508181036000830152612ac7816126b4565b9050919050565b60006020820190508181036000830152612ae7816126f4565b9050919050565b60006020820190508181036000830152612b078161275a565b9050919050565b6000602082019050612b236000830184612804565b92915050565b6000604051905081810181811067ffffffffffffffff82111715612b5057612b4f612e24565b5b8060405250919050565b600067ffffffffffffffff821115612b7557612b74612e24565b5b601f19601f8301169050602081019050919050565b6000819050602082019050919050565b6000819050602082019050919050565b6000819050602082019050919050565b600081519050919050565b600081519050919050565b600081519050919050565b600081519050919050565b6000602082019050919050565b6000602082019050919050565b6000602082019050919050565b600082825260208201905092915050565b600082825260208201905092915050565b600082825260208201905092915050565b600082825260208201905092915050565b600082825260208201905092915050565b600081905092915050565b6000612c7882612c9e565b9050919050565b60008115159050919050565b6000819050612c9982612e64565b919050565b600073ffffffffffffffffffffffffffffffffffffffff82169050919050565b6000819050919050565b6000612cd382612c8b565b9050919050565b82818337600083830152505050565b60005b83811015612d07578082015181840152602081019050612cec565b83811115612d16576000848401525b50505050565b60006002820490506001821680612d3457607f821691505b60208210811415612d4857612d47612df5565b5b50919050565b6000612d5982612cbe565b91507fffffffffffffffffffffffffffffffffffffffffffffffffffffffffffffffff821415612d8c57612d8b612d97565b5b600182019050919050565b7f4e487b7100000000000000000000000000000000000000000000000000000000600052601160045260246000fd5b7f4e487b7100000000000000000000000000000000000000000000000000000000600052602160045260246000fd5b7f4e487b7100000000000000000000000000000000000000000000000000000000600052602260045260246000fd5b7f4e487b7100000000000000000000000000000000000000000000000000000000600052604160045260246000fd5b6000601f19601f8301169050919050565b60038110612e7557612e74612dc6565b5b50565b612e8181612c6d565b8114612e8c57600080fd5b50565b612e9881612c7f565b8114612ea357600080fd5b50565b60038110612eb357600080fd5b50565b612ebf81612cbe565b8114612eca57600080fd5b5056fea2646970667358221220435da534af340cb1ab05abdf3ba4bbf59d809c34d941247013f808bf9fa6f7aa64736f6c63430008000033",
  "immutableReferences": {},
  "source": "// SPDX-License-Identifier: MIT\r\npragma solidity ^0.8.0;\r\n\r\ncontract BGV {\r\n    // Enum to represent document access control\r\n    enum AccessType { CompanyOnly, StudentOnly, Both }\r\n\r\n    // Struct to represent a document\r\n    struct Document {\r\n        string name;\r\n        string hashValue;\r\n        AccessType access;\r\n    }\r\n\r\n    // Struct to represent a student\r\n    struct Student {\r\n        string name;\r\n        address studentAddress;\r\n        address addedBy; // Address of the university that added the student\r\n        mapping(string => Document) documents; // Mapping of hashValue to Document\r\n        string[] documentKeys; // Array to store keys of documents mapping\r\n    }\r\n\r\n    // Struct to represent a university\r\n    struct University {\r\n        string name;\r\n        address universityAddress;\r\n        string licenseNumber;\r\n        bool approvedByGovernment;\r\n    }\r\n\r\n    // Mapping to store students by their Ethereum address\r\n    mapping(address => Student) public students;\r\n\r\n    // Mapping to store universities by their Ethereum address\r\n    mapping(address => University) public universities;\r\n\r\n    // Mapping to store license numbers to prevent duplicates\r\n    mapping(string => bool) public licenseNumbers;\r\n\r\n    // Array to store university addresses\r\n    address[] public universityAddresses;\r\n\r\n    // Event to emit when a new student is added\r\n    // event StudentAdded(address indexed studentAddress, string name, address indexed addedBy);\r\n\r\n    // Event to emit when a new document is added to a student\r\n    event DocumentAdded(address indexed studentAddress, string documentName, string hashValue, AccessType access);\r\n\r\n    // Event to emit when a new university is added\r\n    event UniversityAdded(address indexed universityAddress, string name);\r\n\r\n    // Event to emit when document access type is changed\r\n    event DocumentAccessChanged(address indexed studentAddress, string hashValue, AccessType newAccessType);\r\n\r\n    // Modifier to ensure only a legitimate university can add a student\r\n    modifier onlyLegitimateUniversity(address _universityAddress) {\r\n        require(universities[_universityAddress].approvedByGovernment && bytes(universities[_universityAddress].licenseNumber).length > 0, \"Only a legitimate university can add a student\");\r\n        _;\r\n    }\r\n\r\n    // Function to add a new student\r\n    // mapping(address => Student) public students;\r\n    address[] public studentAddresses; // Maintain a list of student addresses\r\n\r\n    // Function to add a new student\r\n    function addStudent(string memory _name, address _studentAddress) public {\r\n        // Ensure the student does not already exist\r\n        require(students[_studentAddress].studentAddress == address(0), \"Student already exists\");\r\n\r\n        // Create a new student\r\n        Student storage newStudent = students[_studentAddress];\r\n        newStudent.name = _name;\r\n        newStudent.studentAddress = _studentAddress;\r\n        newStudent.addedBy = msg.sender; // Set the university that added the student\r\n\r\n        // Add the student address to the list\r\n        studentAddresses.push(_studentAddress);\r\n\r\n        // Emit an event to notify that a new student has been added\r\n        emit StudentAdded(_studentAddress, _name, msg.sender);\r\n    }\r\n\r\n    // Function to get all students' names\r\n    function getAllStudentNames() public view returns (string[] memory) {\r\n        string[] memory names = new string[](studentAddresses.length);\r\n\r\n        for (uint256 i = 0; i < studentAddresses.length; i++) {\r\n            names[i] = students[studentAddresses[i]].name;\r\n        }\r\n\r\n        return names;\r\n    }\r\n\r\n    // Function to get all students' addresses\r\n    function getAllStudentAddresses() public view returns (address[] memory) {\r\n        return studentAddresses;\r\n    }\r\n\r\n    // Event to emit when a new student is added\r\n    event StudentAdded(address indexed studentAddress, string name, address indexed addedBy);\r\n\r\n    // Function to add a document to an existing student\r\n    function addDocumentToStudent(address _studentAddress, string memory _documentName, string memory _hashValue, AccessType _access) public {\r\n        // Ensure the student exists\r\n        require(students[_studentAddress].studentAddress != address(0), \"Student does not exist\");\r\n\r\n        // Ensure the caller is the university that added the student\r\n        require(msg.sender == students[_studentAddress].addedBy, \"Only the university that added the student can add documents\");\r\n\r\n        // Check if a document with the same hash value already exists\r\n        require(students[_studentAddress].documents[_hashValue].access == AccessType(0), \"Document already exists\");\r\n\r\n        // Create a new document\r\n        Document memory newDocument = Document({\r\n            name: _documentName,\r\n            hashValue: _hashValue,\r\n            access: _access\r\n        });\r\n\r\n        // Add the document to the student's mapping\r\n        students[_studentAddress].documents[_hashValue] = newDocument;\r\n        students[_studentAddress].documentKeys.push(_hashValue); // Add the key to documentKeys array\r\n\r\n        // Emit an event to notify that a new document has been added to the student\r\n        emit DocumentAdded(_studentAddress, _documentName, _hashValue, _access);\r\n    }\r\n\r\n    // Function to add a new university\r\n    function addUniversity(string memory _name, address _universityAddress, string memory _licenseNumber, bool _approvedByGovernment) public {\r\n        // Ensure the university address is unique\r\n        require(universities[_universityAddress].universityAddress == address(0), \"University address already exists\");\r\n\r\n        // Ensure the license number is unique\r\n        require(!licenseNumbers[_licenseNumber], \"License number already exists\");\r\n\r\n        // Ensure the university is approved by the government\r\n        require(_approvedByGovernment, \"University must be approved by the government\");\r\n\r\n        // Create a new university\r\n        University storage newUniversity = universities[_universityAddress];\r\n        newUniversity.name = _name;\r\n        newUniversity.universityAddress = _universityAddress;\r\n        newUniversity.licenseNumber = _licenseNumber;\r\n        newUniversity.approvedByGovernment = _approvedByGovernment;\r\n\r\n        // Add university address to the array\r\n        universityAddresses.push(_universityAddress);\r\n\r\n        // Mark the license number as used\r\n        licenseNumbers[_licenseNumber] = true;\r\n\r\n        // Emit an event to notify that a new university has been added\r\n        emit UniversityAdded(_universityAddress, _name);\r\n    }\r\n\r\n    // Function to verify if a university is legitimate\r\n    function isUniversityLegitimate(address _universityAddress) public view returns (bool) {\r\n        return universities[_universityAddress].approvedByGovernment && bytes(universities[_universityAddress].licenseNumber).length > 0;\r\n    }\r\n\r\n    // Function to get the count of documents for a student\r\n    function getDocumentCount(address _studentAddress) public view returns (uint) {\r\n        return students[_studentAddress].documentKeys.length;\r\n    }\r\n\r\n    // Function to get the details of a document for a student\r\n    function getDocumentDetails(address _studentAddress, string memory _hashValue) public view returns (string memory, string memory, AccessType) {\r\n        Document memory doc = students[_studentAddress].documents[_hashValue];\r\n        return (doc.name, doc.hashValue, doc.access);\r\n    }\r\n\r\n    // Function to change the access type of a document for a student\r\n    function changeDocumentAccess(address _studentAddress, string memory _hashValue, AccessType _newAccessType) public {\r\n        // Ensure the student exists\r\n        require(students[_studentAddress].studentAddress != address(0), \"Student does not exist\");\r\n\r\n        // Ensure the caller is the student who owns the document\r\n        require(msg.sender == _studentAddress, \"Only the student can change document access\");\r\n\r\n        // Ensure the document exists\r\n        require(students[_studentAddress].documents[_hashValue].access != AccessType(0), \"Document does not exist\");\r\n\r\n        // Update the document access type\r\n        students[_studentAddress].documents[_hashValue].access = _newAccessType;\r\n\r\n        // Emit an event to notify that document access has been changed\r\n        emit DocumentAccessChanged(_studentAddress, _hashValue, _newAccessType);\r\n    }\r\n\r\n    // Function to get all universities added\r\n    function getAllUniversities() public view returns (University[] memory) {\r\n        University[] memory allUniversities = new University[](universityAddresses.length);\r\n        for (uint i = 0; i < universityAddresses.length; i++) {\r\n            allUniversities[i] = universities[universityAddresses[i]];\r\n        }\r\n        return allUniversities;\r\n    }\r\n\r\n    // mapping(address => Student) public students;\r\n\r\n    // // Function to get all students\r\n    // function getAllStudents() public view returns (Student[] memory) {\r\n    //     // Create an array to store details of all students\r\n    //     Student[] memory allStudents = new Student[](addressCount);\r\n\r\n    //     // Iterate over all student addresses\r\n    //     for (uint256 i = 0; i < addressCount; i++) {\r\n    //         // Get the student details\r\n    //         Student memory student = students[studentAddresses[i]];\r\n\r\n    //         // Store the student details in the array\r\n    //         allStudents[i] = student;\r\n    //     }\r\n\r\n    //     // Return the array containing details of all students\r\n    //     return allStudents;\r\n    // }\r\n}\r\n",
  "sourcePath": "C:\\Users\\DELL\\Desktop\\EMPVERIFY\\contracts\\BGV.sol",
  "compiler": {
    "name": "solc",
    "version": "0.8.0+commit.c7dfd78e.Emscripten.clang"
  },
  "schemaVersion": "3.4.16",
  "updatedAt": "2024-04-07T10:10:11.292Z",
  "networkType": "ethereum",
  "devdoc": {
    "kind": "dev",
    "methods": {},
    "version": 1
  },
  "userdoc": {
    "kind": "user",
    "methods": {},
    "version": 1
  }
}