{
  "contractName": "BGV",
  "abi": [
    {
      "anonymous": false,
      "inputs": [
        {
          "indexed": true,
          "internalType": "address",
          "name": "studentAddress",
          "type": "address"
        },
        {
          "indexed": false,
          "internalType": "string",
          "name": "hashValue",
          "type": "string"
        },
        {
          "indexed": false,
          "internalType": "enum BGV.AccessType",
          "name": "newAccessType",
          "type": "uint8"
        }
      ],
      "name": "DocumentAccessChanged",
      "type": "event"
    },
    {
      "anonymous": false,
      "inputs": [
        {
          "indexed": true,
          "internalType": "address",
          "name": "studentAddress",
          "type": "address"
        },
        {
          "indexed": false,
          "internalType": "string",
          "name": "documentName",
          "type": "string"
        },
        {
          "indexed": false,
          "internalType": "string",
          "name": "hashValue",
          "type": "string"
        },
        {
          "indexed": false,
          "internalType": "enum BGV.AccessType",
          "name": "access",
          "type": "uint8"
        }
      ],
      "name": "DocumentAdded",
      "type": "event"
    },
    {
      "anonymous": false,
      "inputs": [
        {
          "indexed": true,
          "internalType": "address",
          "name": "studentAddress",
          "type": "address"
        },
        {
          "indexed": false,
          "internalType": "string",
          "name": "name",
          "type": "string"
        },
        {
          "indexed": true,
          "internalType": "address",
          "name": "addedBy",
          "type": "address"
        }
      ],
      "name": "StudentAdded",
      "type": "event"
    },
    {
      "anonymous": false,
      "inputs": [
        {
          "indexed": true,
          "internalType": "address",
          "name": "universityAddress",
          "type": "address"
        },
        {
          "indexed": false,
          "internalType": "string",
          "name": "name",
          "type": "string"
        }
      ],
      "name": "UniversityAdded",
      "type": "event"
    },
    {
      "inputs": [
        {
          "internalType": "string",
          "name": "",
          "type": "string"
        }
      ],
      "name": "licenseNumbers",
      "outputs": [
        {
          "internalType": "bool",
          "name": "",
          "type": "bool"
        }
      ],
      "stateMutability": "view",
      "type": "function",
      "constant": true
    },
    {
      "inputs": [
        {
          "internalType": "address",
          "name": "",
          "type": "address"
        }
      ],
      "name": "students",
      "outputs": [
        {
          "internalType": "string",
          "name": "name",
          "type": "string"
        },
        {
          "internalType": "address",
          "name": "studentAddress",
          "type": "address"
        },
        {
          "internalType": "address",
          "name": "addedBy",
          "type": "address"
        }
      ],
      "stateMutability": "view",
      "type": "function",
      "constant": true
    },
    {
      "inputs": [
        {
          "internalType": "address",
          "name": "",
          "type": "address"
        }
      ],
      "name": "universities",
      "outputs": [
        {
          "internalType": "string",
          "name": "name",
          "type": "string"
        },
        {
          "internalType": "address",
          "name": "universityAddress",
          "type": "address"
        },
        {
          "internalType": "string",
          "name": "licenseNumber",
          "type": "string"
        },
        {
          "internalType": "bool",
          "name": "approvedByGovernment",
          "type": "bool"
        }
      ],
      "stateMutability": "view",
      "type": "function",
      "constant": true
    },
    {
      "inputs": [
        {
          "internalType": "uint256",
          "name": "",
          "type": "uint256"
        }
      ],
      "name": "universityAddresses",
      "outputs": [
        {
          "internalType": "address",
          "name": "",
          "type": "address"
        }
      ],
      "stateMutability": "view",
      "type": "function",
      "constant": true
    },
    {
      "inputs": [
        {
          "internalType": "string",
          "name": "_name",
          "type": "string"
        },
        {
          "internalType": "address",
          "name": "_studentAddress",
          "type": "address"
        }
      ],
      "name": "addStudent",
      "outputs": [],
      "stateMutability": "nonpayable",
      "type": "function"
    },
    {
      "inputs": [
        {
          "internalType": "address",
          "name": "_studentAddress",
          "type": "address"
        },
        {
          "internalType": "string",
          "name": "_documentName",
          "type": "string"
        },
        {
          "internalType": "string",
          "name": "_hashValue",
          "type": "string"
        },
        {
          "internalType": "enum BGV.AccessType",
          "name": "_access",
          "type": "uint8"
        }
      ],
      "name": "addDocumentToStudent",
      "outputs": [],
      "stateMutability": "nonpayable",
      "type": "function"
    },
    {
      "inputs": [
        {
          "internalType": "string",
          "name": "_name",
          "type": "string"
        },
        {
          "internalType": "address",
          "name": "_universityAddress",
          "type": "address"
        },
        {
          "internalType": "string",
          "name": "_licenseNumber",
          "type": "string"
        },
        {
          "internalType": "bool",
          "name": "_approvedByGovernment",
          "type": "bool"
        }
      ],
      "name": "addUniversity",
      "outputs": [],
      "stateMutability": "nonpayable",
      "type": "function"
    },
    {
      "inputs": [
        {
          "internalType": "address",
          "name": "_universityAddress",
          "type": "address"
        }
      ],
      "name": "isUniversityLegitimate",
      "outputs": [
        {
          "internalType": "bool",
          "name": "",
          "type": "bool"
        }
      ],
      "stateMutability": "view",
      "type": "function",
      "constant": true
    },
    {
      "inputs": [
        {
          "internalType": "address",
          "name": "_studentAddress",
          "type": "address"
        }
      ],
      "name": "getDocumentCount",
      "outputs": [
        {
          "internalType": "uint256",
          "name": "",
          "type": "uint256"
        }
      ],
      "stateMutability": "view",
      "type": "function",
      "constant": true
    },
    {
      "inputs": [
        {
          "internalType": "address",
          "name": "_studentAddress",
          "type": "address"
        },
        {
          "internalType": "string",
          "name": "_hashValue",
          "type": "string"
        }
      ],
      "name": "getDocumentDetails",
      "outputs": [
        {
          "internalType": "string",
          "name": "",
          "type": "string"
        },
        {
          "internalType": "string",
          "name": "",
          "type": "string"
        },
        {
          "internalType": "enum BGV.AccessType",
          "name": "",
          "type": "uint8"
        }
      ],
      "stateMutability": "view",
      "type": "function",
      "constant": true
    },
    {
      "inputs": [
        {
          "internalType": "address",
          "name": "_studentAddress",
          "type": "address"
        },
        {
          "internalType": "string",
          "name": "_hashValue",
          "type": "string"
        },
        {
          "internalType": "enum BGV.AccessType",
          "name": "_newAccessType",
          "type": "uint8"
        }
      ],
      "name": "changeDocumentAccess",
      "outputs": [],
      "stateMutability": "nonpayable",
      "type": "function"
    },
    {
      "inputs": [],
      "name": "getAllUniversities",
      "outputs": [
        {
          "components": [
            {
              "internalType": "string",
              "name": "name",
              "type": "string"
            },
            {
              "internalType": "address",
              "name": "universityAddress",
              "type": "address"
            },
            {
              "internalType": "string",
              "name": "licenseNumber",
              "type": "string"
            },
            {
              "internalType": "bool",
              "name": "approvedByGovernment",
              "type": "bool"
            }
          ],
          "internalType": "struct BGV.University[]",
          "name": "",
          "type": "tuple[]"
        }
      ],
      "stateMutability": "view",
      "type": "function",
      "constant": true
    }
  ],
  "bytecode": "0x608060405234801561001057600080fd5b50612ac6806100206000396000f3fe608060405234801561001057600080fd5b50600436106100b45760003560e01c80636166333f116100715780636166333f146101b357806380409a99146101cf578063a6c807a9146101eb578063d1924ede1461021d578063f09955601461024d578063f597d99414610280576100b4565b806310468c2f146100b957806333dc49a3146100d557806334ed2694146101075780633b993fe0146101375780634a9626d51461016757806353977e5414610183575b600080fd5b6100d360048036038101906100ce9190611e2e565b61029e565b005b6100ef60048036038101906100ea9190611c9f565b6105a4565b6040516100fe939291906125be565b60405180910390f35b610121600480360381019061011c9190611f15565b6107dc565b60405161012e9190612483565b60405180910390f35b610151600480360381019061014c9190611c76565b61081b565b60405161015e9190612743565b60405180910390f35b610181600480360381019061017c9190611cf3565b610869565b005b61019d60048036038101906101989190611c76565b610c04565b6040516101aa91906124c0565b60405180910390f35b6101cd60048036038101906101c89190611e82565b610cb7565b005b6101e960048036038101906101e49190611d5a565b610ff7565b005b61020560048036038101906102009190611c76565b61150b565b604051610214939291906124fd565b60405180910390f35b61023760048036038101906102329190611ded565b6115fd565b60405161024491906124c0565b60405180910390f35b61026760048036038101906102629190611c76565b611633565b604051610277949392919061253b565b60405180910390f35b6102886117a0565b604051610295919061249e565b60405180910390f35b33600160008273ffffffffffffffffffffffffffffffffffffffff1673ffffffffffffffffffffffffffffffffffffffff16815260200190815260200160002060030160009054906101000a900460ff16801561034957506000600160008373ffffffffffffffffffffffffffffffffffffffff1673ffffffffffffffffffffffffffffffffffffffff1681526020019081526020016000206002018054610345906128df565b9050115b610388576040517f08c379a000000000000000000000000000000000000000000000000000000000815260040161037f90612643565b60405180910390fd5b600073ffffffffffffffffffffffffffffffffffffffff166000808473ffffffffffffffffffffffffffffffffffffffff1673ffffffffffffffffffffffffffffffffffffffff16815260200190815260200160002060010160009054906101000a900473ffffffffffffffffffffffffffffffffffffffff1673ffffffffffffffffffffffffffffffffffffffff1614610458576040517f08c379a000000000000000000000000000000000000000000000000000000000815260040161044f906126c3565b60405180910390fd5b60008060008473ffffffffffffffffffffffffffffffffffffffff1673ffffffffffffffffffffffffffffffffffffffff1681526020019081526020016000209050838160000190805190602001906104b2929190611ad7565b50828160010160006101000a81548173ffffffffffffffffffffffffffffffffffffffff021916908373ffffffffffffffffffffffffffffffffffffffff160217905550338160020160006101000a81548173ffffffffffffffffffffffffffffffffffffffff021916908373ffffffffffffffffffffffffffffffffffffffff1602179055503373ffffffffffffffffffffffffffffffffffffffff168373ffffffffffffffffffffffffffffffffffffffff167fc902157d0d935238ddf40055643d8152eef5670ddb5272f02869e8dbeaf5dcd68660405161059691906124db565b60405180910390a350505050565b6060806000806000808773ffffffffffffffffffffffffffffffffffffffff1673ffffffffffffffffffffffffffffffffffffffff168152602001908152602001600020600301856040516105f9919061246c565b9081526020016040518091039020604051806060016040529081600082018054610622906128df565b80601f016020809104026020016040519081016040528092919081815260200182805461064e906128df565b801561069b5780601f106106705761010080835404028352916020019161069b565b820191906000526020600020905b81548152906001019060200180831161067e57829003601f168201915b505050505081526020016001820180546106b4906128df565b80601f01602080910402602001604051908101604052809291908181526020018280546106e0906128df565b801561072d5780601f106107025761010080835404028352916020019161072d565b820191906000526020600020905b81548152906001019060200180831161071057829003601f168201915b505050505081526020016002820160009054906101000a900460ff166002811115610781577f4e487b7100000000000000000000000000000000000000000000000000000000600052602160045260246000fd5b60028111156107b9577f4e487b7100000000000000000000000000000000000000000000000000000000600052602160045260246000fd5b815250509050806000015181602001518260400151935093509350509250925092565b600381815481106107ec57600080fd5b906000526020600020016000915054906101000a900473ffffffffffffffffffffffffffffffffffffffff1681565b60008060008373ffffffffffffffffffffffffffffffffffffffff1673ffffffffffffffffffffffffffffffffffffffff168152602001908152602001600020600401805490509050919050565b600073ffffffffffffffffffffffffffffffffffffffff166000808573ffffffffffffffffffffffffffffffffffffffff1673ffffffffffffffffffffffffffffffffffffffff16815260200190815260200160002060010160009054906101000a900473ffffffffffffffffffffffffffffffffffffffff1673ffffffffffffffffffffffffffffffffffffffff16141561093a576040517f08c379a000000000000000000000000000000000000000000000000000000000815260040161093190612683565b60405180910390fd5b8273ffffffffffffffffffffffffffffffffffffffff163373ffffffffffffffffffffffffffffffffffffffff16146109a8576040517f08c379a000000000000000000000000000000000000000000000000000000000815260040161099f90612703565b60405180910390fd5b600060028111156109e2577f4e487b7100000000000000000000000000000000000000000000000000000000600052602160045260246000fd5b6002811115610a1a577f4e487b7100000000000000000000000000000000000000000000000000000000600052602160045260246000fd5b6000808573ffffffffffffffffffffffffffffffffffffffff1673ffffffffffffffffffffffffffffffffffffffff16815260200190815260200160002060030183604051610a69919061246c565b908152602001604051809103902060020160009054906101000a900460ff166002811115610ac0577f4e487b7100000000000000000000000000000000000000000000000000000000600052602160045260246000fd5b1415610b01576040517f08c379a0000000000000000000000000000000000000000000000000000000008152600401610af890612723565b60405180910390fd5b806000808573ffffffffffffffffffffffffffffffffffffffff1673ffffffffffffffffffffffffffffffffffffffff16815260200190815260200160002060030183604051610b51919061246c565b908152602001604051809103902060020160006101000a81548160ff02191690836002811115610baa577f4e487b7100000000000000000000000000000000000000000000000000000000600052602160045260246000fd5b02179055508273ffffffffffffffffffffffffffffffffffffffff167fe3e944fc29fcec957aa4c092fd5a446e596a5f82f9a1f418c68fa44ddf65e5f28383604051610bf792919061258e565b60405180910390a2505050565b6000600160008373ffffffffffffffffffffffffffffffffffffffff1673ffffffffffffffffffffffffffffffffffffffff16815260200190815260200160002060030160009054906101000a900460ff168015610cb057506000600160008473ffffffffffffffffffffffffffffffffffffffff1673ffffffffffffffffffffffffffffffffffffffff1681526020019081526020016000206002018054610cac906128df565b9050115b9050919050565b600073ffffffffffffffffffffffffffffffffffffffff16600160008573ffffffffffffffffffffffffffffffffffffffff1673ffffffffffffffffffffffffffffffffffffffff16815260200190815260200160002060010160009054906101000a900473ffffffffffffffffffffffffffffffffffffffff1673ffffffffffffffffffffffffffffffffffffffff1614610d88576040517f08c379a0000000000000000000000000000000000000000000000000000000008152600401610d7f90612623565b60405180910390fd5b600282604051610d98919061246c565b908152602001604051809103902060009054906101000a900460ff1615610df4576040517f08c379a0000000000000000000000000000000000000000000000000000000008152600401610deb906126e3565b60405180910390fd5b80610e34576040517f08c379a0000000000000000000000000000000000000000000000000000000008152600401610e2b906126a3565b60405180910390fd5b6000600160008573ffffffffffffffffffffffffffffffffffffffff1673ffffffffffffffffffffffffffffffffffffffff168152602001908152602001600020905084816000019080519060200190610e8f929190611ad7565b50838160010160006101000a81548173ffffffffffffffffffffffffffffffffffffffff021916908373ffffffffffffffffffffffffffffffffffffffff16021790555082816002019080519060200190610eeb929190611ad7565b50818160030160006101000a81548160ff0219169083151502179055506003849080600181540180825580915050600190039060005260206000200160009091909190916101000a81548173ffffffffffffffffffffffffffffffffffffffff021916908373ffffffffffffffffffffffffffffffffffffffff1602179055506001600284604051610f7d919061246c565b908152602001604051809103902060006101000a81548160ff0219169083151502179055508373ffffffffffffffffffffffffffffffffffffffff167fec1e06e5bcd47cc0ab9791be5856f0e0bab5a2be711f3f3fd979d4c694c7c1f986604051610fe891906124db565b60405180910390a25050505050565b600073ffffffffffffffffffffffffffffffffffffffff166000808673ffffffffffffffffffffffffffffffffffffffff1673ffffffffffffffffffffffffffffffffffffffff16815260200190815260200160002060010160009054906101000a900473ffffffffffffffffffffffffffffffffffffffff1673ffffffffffffffffffffffffffffffffffffffff1614156110c8576040517f08c379a00000000000000000000000000000000000000000000000000000000081526004016110bf90612683565b60405180910390fd5b6000808573ffffffffffffffffffffffffffffffffffffffff1673ffffffffffffffffffffffffffffffffffffffff16815260200190815260200160002060020160009054906101000a900473ffffffffffffffffffffffffffffffffffffffff1673ffffffffffffffffffffffffffffffffffffffff163373ffffffffffffffffffffffffffffffffffffffff1614611197576040517f08c379a000000000000000000000000000000000000000000000000000000000815260040161118e90612603565b60405180910390fd5b600060028111156111d1577f4e487b7100000000000000000000000000000000000000000000000000000000600052602160045260246000fd5b6002811115611209577f4e487b7100000000000000000000000000000000000000000000000000000000600052602160045260246000fd5b6000808673ffffffffffffffffffffffffffffffffffffffff1673ffffffffffffffffffffffffffffffffffffffff16815260200190815260200160002060030183604051611258919061246c565b908152602001604051809103902060020160009054906101000a900460ff1660028111156112af577f4e487b7100000000000000000000000000000000000000000000000000000000600052602160045260246000fd5b146112ef576040517f08c379a00000000000000000000000000000000000000000000000000000000081526004016112e690612663565b60405180910390fd5b60006040518060600160405280858152602001848152602001836002811115611341577f4e487b7100000000000000000000000000000000000000000000000000000000600052602160045260246000fd5b8152509050806000808773ffffffffffffffffffffffffffffffffffffffff1673ffffffffffffffffffffffffffffffffffffffff16815260200190815260200160002060030184604051611396919061246c565b908152602001604051809103902060008201518160000190805190602001906113c0929190611ad7565b5060208201518160010190805190602001906113dd929190611ad7565b5060408201518160020160006101000a81548160ff0219169083600281111561142f577f4e487b7100000000000000000000000000000000000000000000000000000000600052602160045260246000fd5b02179055509050506000808673ffffffffffffffffffffffffffffffffffffffff1673ffffffffffffffffffffffffffffffffffffffff168152602001908152602001600020600401839080600181540180825580915050600190039060005260206000200160009091909190915090805190602001906114b1929190611ad7565b508473ffffffffffffffffffffffffffffffffffffffff167f7e36441495113984545f29a9881ab6081c3c29c3ad9d8a38168758d2d7dbfc258585856040516114fc939291906125be565b60405180910390a25050505050565b600060205280600052604060002060009150905080600001805461152e906128df565b80601f016020809104026020016040519081016040528092919081815260200182805461155a906128df565b80156115a75780601f1061157c576101008083540402835291602001916115a7565b820191906000526020600020905b81548152906001019060200180831161158a57829003601f168201915b5050505050908060010160009054906101000a900473ffffffffffffffffffffffffffffffffffffffff16908060020160009054906101000a900473ffffffffffffffffffffffffffffffffffffffff16905083565b6002818051602081018201805184825260208301602085012081835280955050505050506000915054906101000a900460ff1681565b6001602052806000526040600020600091509050806000018054611656906128df565b80601f0160208091040260200160405190810160405280929190818152602001828054611682906128df565b80156116cf5780601f106116a4576101008083540402835291602001916116cf565b820191906000526020600020905b8154815290600101906020018083116116b257829003601f168201915b5050505050908060010160009054906101000a900473ffffffffffffffffffffffffffffffffffffffff169080600201805461170a906128df565b80601f0160208091040260200160405190810160405280929190818152602001828054611736906128df565b80156117835780601f1061175857610100808354040283529160200191611783565b820191906000526020600020905b81548152906001019060200180831161176657829003601f168201915b5050505050908060030160009054906101000a900460ff16905084565b6060600060038054905067ffffffffffffffff8111156117e9577f4e487b7100000000000000000000000000000000000000000000000000000000600052604160045260246000fd5b60405190808252806020026020018201604052801561182257816020015b61180f611b5d565b8152602001906001900390816118075790505b50905060005b600380549050811015611acf576001600060038381548110611873577f4e487b7100000000000000000000000000000000000000000000000000000000600052603260045260246000fd5b9060005260206000200160009054906101000a900473ffffffffffffffffffffffffffffffffffffffff1673ffffffffffffffffffffffffffffffffffffffff1673ffffffffffffffffffffffffffffffffffffffff1681526020019081526020016000206040518060800160405290816000820180546118f3906128df565b80601f016020809104026020016040519081016040528092919081815260200182805461191f906128df565b801561196c5780601f106119415761010080835404028352916020019161196c565b820191906000526020600020905b81548152906001019060200180831161194f57829003601f168201915b505050505081526020016001820160009054906101000a900473ffffffffffffffffffffffffffffffffffffffff1673ffffffffffffffffffffffffffffffffffffffff1673ffffffffffffffffffffffffffffffffffffffff1681526020016002820180546119db906128df565b80601f0160208091040260200160405190810160405280929190818152602001828054611a07906128df565b8015611a545780601f10611a2957610100808354040283529160200191611a54565b820191906000526020600020905b815481529060010190602001808311611a3757829003601f168201915b505050505081526020016003820160009054906101000a900460ff161515151581525050828281518110611ab1577f4e487b7100000000000000000000000000000000000000000000000000000000600052603260045260246000fd5b60200260200101819052508080611ac790612911565b915050611828565b508091505090565b828054611ae3906128df565b90600052602060002090601f016020900481019282611b055760008555611b4c565b82601f10611b1e57805160ff1916838001178555611b4c565b82800160010185558215611b4c579182015b82811115611b4b578251825591602001919060010190611b30565b5b509050611b599190611b9d565b5090565b604051806080016040528060608152602001600073ffffffffffffffffffffffffffffffffffffffff168152602001606081526020016000151581525090565b5b80821115611bb6576000816000905550600101611b9e565b5090565b6000611bcd611bc88461278f565b61275e565b905082815260208101848484011115611be557600080fd5b611bf084828561289d565b509392505050565b600081359050611c0781612a3b565b92915050565b600081359050611c1c81612a52565b92915050565b600081359050611c3181612a69565b92915050565b600082601f830112611c4857600080fd5b8135611c58848260208601611bba565b91505092915050565b600081359050611c7081612a79565b92915050565b600060208284031215611c8857600080fd5b6000611c9684828501611bf8565b91505092915050565b60008060408385031215611cb257600080fd5b6000611cc085828601611bf8565b925050602083013567ffffffffffffffff811115611cdd57600080fd5b611ce985828601611c37565b9150509250929050565b600080600060608486031215611d0857600080fd5b6000611d1686828701611bf8565b935050602084013567ffffffffffffffff811115611d3357600080fd5b611d3f86828701611c37565b9250506040611d5086828701611c22565b9150509250925092565b60008060008060808587031215611d7057600080fd5b6000611d7e87828801611bf8565b945050602085013567ffffffffffffffff811115611d9b57600080fd5b611da787828801611c37565b935050604085013567ffffffffffffffff811115611dc457600080fd5b611dd087828801611c37565b9250506060611de187828801611c22565b91505092959194509250565b600060208284031215611dff57600080fd5b600082013567ffffffffffffffff811115611e1957600080fd5b611e2584828501611c37565b91505092915050565b60008060408385031215611e4157600080fd5b600083013567ffffffffffffffff811115611e5b57600080fd5b611e6785828601611c37565b9250506020611e7885828601611bf8565b9150509250929050565b60008060008060808587031215611e9857600080fd5b600085013567ffffffffffffffff811115611eb257600080fd5b611ebe87828801611c37565b9450506020611ecf87828801611bf8565b935050604085013567ffffffffffffffff811115611eec57600080fd5b611ef887828801611c37565b9250506060611f0987828801611c0d565b91505092959194509250565b600060208284031215611f2757600080fd5b6000611f3584828501611c61565b91505092915050565b6000611f4a83836123f3565b905092915050565b611f5b81612830565b82525050565b611f6a81612830565b82525050565b6000611f7b826127cf565b611f8581856127f2565b935083602082028501611f97856127bf565b8060005b85811015611fd35784840389528151611fb48582611f3e565b9450611fbf836127e5565b925060208a01995050600181019050611f9b565b50829750879550505050505092915050565b611fee81612842565b82525050565b611ffd81612842565b82525050565b61200c8161288b565b82525050565b600061201d826127da565b6120278185612803565b93506120378185602086016128ac565b61204081612a16565b840191505092915050565b6000612056826127da565b6120608185612814565b93506120708185602086016128ac565b61207981612a16565b840191505092915050565b600061208f826127da565b6120998185612825565b93506120a98185602086016128ac565b80840191505092915050565b60006120c2603c83612814565b91507f4f6e6c792074686520756e69766572736974792074686174206164646564207460008301527f68652073747564656e742063616e2061646420646f63756d656e7473000000006020830152604082019050919050565b6000612128602183612814565b91507f556e6976657273697479206164647265737320616c726561647920657869737460008301527f73000000000000000000000000000000000000000000000000000000000000006020830152604082019050919050565b600061218e602e83612814565b91507f4f6e6c792061206c65676974696d61746520756e69766572736974792063616e60008301527f2061646420612073747564656e740000000000000000000000000000000000006020830152604082019050919050565b60006121f4601783612814565b91507f446f63756d656e7420616c7265616479206578697374730000000000000000006000830152602082019050919050565b6000612234601683612814565b91507f53747564656e7420646f6573206e6f74206578697374000000000000000000006000830152602082019050919050565b6000612274602d83612814565b91507f556e6976657273697479206d75737420626520617070726f766564206279207460008301527f686520676f7665726e6d656e74000000000000000000000000000000000000006020830152604082019050919050565b60006122da601683612814565b91507f53747564656e7420616c726561647920657869737473000000000000000000006000830152602082019050919050565b600061231a601d83612814565b91507f4c6963656e7365206e756d62657220616c7265616479206578697374730000006000830152602082019050919050565b600061235a602b83612814565b91507f4f6e6c79207468652073747564656e742063616e206368616e676520646f637560008301527f6d656e74206163636573730000000000000000000000000000000000000000006020830152604082019050919050565b60006123c0601783612814565b91507f446f63756d656e7420646f6573206e6f742065786973740000000000000000006000830152602082019050919050565b600060808301600083015184820360008601526124108282612012565b91505060208301516124256020860182611f52565b506040830151848203604086015261243d8282612012565b91505060608301516124526060860182611fe5565b508091505092915050565b61246681612881565b82525050565b60006124788284612084565b915081905092915050565b60006020820190506124986000830184611f61565b92915050565b600060208201905081810360008301526124b88184611f70565b905092915050565b60006020820190506124d56000830184611ff4565b92915050565b600060208201905081810360008301526124f5818461204b565b905092915050565b60006060820190508181036000830152612517818661204b565b90506125266020830185611f61565b6125336040830184611f61565b949350505050565b60006080820190508181036000830152612555818761204b565b90506125646020830186611f61565b8181036040830152612576818561204b565b90506125856060830184611ff4565b95945050505050565b600060408201905081810360008301526125a8818561204b565b90506125b76020830184612003565b9392505050565b600060608201905081810360008301526125d8818661204b565b905081810360208301526125ec818561204b565b90506125fb6040830184612003565b949350505050565b6000602082019050818103600083015261261c816120b5565b9050919050565b6000602082019050818103600083015261263c8161211b565b9050919050565b6000602082019050818103600083015261265c81612181565b9050919050565b6000602082019050818103600083015261267c816121e7565b9050919050565b6000602082019050818103600083015261269c81612227565b9050919050565b600060208201905081810360008301526126bc81612267565b9050919050565b600060208201905081810360008301526126dc816122cd565b9050919050565b600060208201905081810360008301526126fc8161230d565b9050919050565b6000602082019050818103600083015261271c8161234d565b9050919050565b6000602082019050818103600083015261273c816123b3565b9050919050565b6000602082019050612758600083018461245d565b92915050565b6000604051905081810181811067ffffffffffffffff82111715612785576127846129e7565b5b8060405250919050565b600067ffffffffffffffff8211156127aa576127a96129e7565b5b601f19601f8301169050602081019050919050565b6000819050602082019050919050565b600081519050919050565b600081519050919050565b6000602082019050919050565b600082825260208201905092915050565b600082825260208201905092915050565b600082825260208201905092915050565b600081905092915050565b600061283b82612861565b9050919050565b60008115159050919050565b600081905061285c82612a27565b919050565b600073ffffffffffffffffffffffffffffffffffffffff82169050919050565b6000819050919050565b60006128968261284e565b9050919050565b82818337600083830152505050565b60005b838110156128ca5780820151818401526020810190506128af565b838111156128d9576000848401525b50505050565b600060028204905060018216806128f757607f821691505b6020821081141561290b5761290a6129b8565b5b50919050565b600061291c82612881565b91507fffffffffffffffffffffffffffffffffffffffffffffffffffffffffffffffff82141561294f5761294e61295a565b5b600182019050919050565b7f4e487b7100000000000000000000000000000000000000000000000000000000600052601160045260246000fd5b7f4e487b7100000000000000000000000000000000000000000000000000000000600052602160045260246000fd5b7f4e487b7100000000000000000000000000000000000000000000000000000000600052602260045260246000fd5b7f4e487b7100000000000000000000000000000000000000000000000000000000600052604160045260246000fd5b6000601f19601f8301169050919050565b60038110612a3857612a37612989565b5b50565b612a4481612830565b8114612a4f57600080fd5b50565b612a5b81612842565b8114612a6657600080fd5b50565b60038110612a7657600080fd5b50565b612a8281612881565b8114612a8d57600080fd5b5056fea2646970667358221220fb7c550e0218dcc88ed230d7cf1dd5b5cec66013273056fccb48949132d4500e64736f6c63430008000033",
  "immutableReferences": {},
  "source": "// SPDX-License-Identifier: MIT\r\npragma solidity ^0.8.0;\r\n\r\ncontract BGV {\r\n    // Enum to represent document access control\r\n    enum AccessType { CompanyOnly, StudentOnly, Both }\r\n\r\n    // Struct to represent a document\r\n    struct Document {\r\n        string name;\r\n        string hashValue;\r\n        AccessType access;\r\n    }\r\n\r\n    // Struct to represent a student\r\n    struct Student {\r\n        string name;\r\n        address studentAddress;\r\n        address addedBy; // Address of the university that added the student\r\n        mapping(string => Document) documents; // Mapping of hashValue to Document\r\n        string[] documentKeys; // Array to store keys of documents mapping\r\n    }\r\n\r\n    // Struct to represent a university\r\n    struct University {\r\n        string name;\r\n        address universityAddress;\r\n        string licenseNumber;\r\n        bool approvedByGovernment;\r\n    }\r\n\r\n    // Mapping to store students by their Ethereum address\r\n    mapping(address => Student) public students;\r\n\r\n    // Mapping to store universities by their Ethereum address\r\n    mapping(address => University) public universities;\r\n\r\n    // Mapping to store license numbers to prevent duplicates\r\n    mapping(string => bool) public licenseNumbers;\r\n\r\n    // Array to store university addresses\r\n    address[] public universityAddresses;\r\n\r\n    // Event to emit when a new student is added\r\n    event StudentAdded(address indexed studentAddress, string name, address indexed addedBy);\r\n\r\n    // Event to emit when a new document is added to a student\r\n    event DocumentAdded(address indexed studentAddress, string documentName, string hashValue, AccessType access);\r\n\r\n    // Event to emit when a new university is added\r\n    event UniversityAdded(address indexed universityAddress, string name);\r\n\r\n    // Event to emit when document access type is changed\r\n    event DocumentAccessChanged(address indexed studentAddress, string hashValue, AccessType newAccessType);\r\n\r\n    // Modifier to ensure only a legitimate university can add a student\r\n    modifier onlyLegitimateUniversity(address _universityAddress) {\r\n        require(universities[_universityAddress].approvedByGovernment && bytes(universities[_universityAddress].licenseNumber).length > 0, \"Only a legitimate university can add a student\");\r\n        _;\r\n    }\r\n\r\n    // Function to add a new student\r\n    function addStudent(string memory _name, address _studentAddress) public onlyLegitimateUniversity(msg.sender) {\r\n        // Ensure the student does not already exist\r\n        require(students[_studentAddress].studentAddress == address(0), \"Student already exists\");\r\n\r\n        // Create a new student\r\n        Student storage newStudent = students[_studentAddress];\r\n        newStudent.name = _name;\r\n        newStudent.studentAddress = _studentAddress;\r\n        newStudent.addedBy = msg.sender; // Set the university that added the student\r\n\r\n        // Emit an event to notify that a new student has been added\r\n        emit StudentAdded(_studentAddress, _name, msg.sender);\r\n    }\r\n\r\n    // Function to add a document to an existing student\r\n    function addDocumentToStudent(address _studentAddress, string memory _documentName, string memory _hashValue, AccessType _access) public {\r\n        // Ensure the student exists\r\n        require(students[_studentAddress].studentAddress != address(0), \"Student does not exist\");\r\n\r\n        // Ensure the caller is the university that added the student\r\n        require(msg.sender == students[_studentAddress].addedBy, \"Only the university that added the student can add documents\");\r\n\r\n        // Check if a document with the same hash value already exists\r\n        require(students[_studentAddress].documents[_hashValue].access == AccessType(0), \"Document already exists\");\r\n\r\n        // Create a new document\r\n        Document memory newDocument = Document({\r\n            name: _documentName,\r\n            hashValue: _hashValue,\r\n            access: _access\r\n        });\r\n\r\n        // Add the document to the student's mapping\r\n        students[_studentAddress].documents[_hashValue] = newDocument;\r\n        students[_studentAddress].documentKeys.push(_hashValue); // Add the key to documentKeys array\r\n\r\n        // Emit an event to notify that a new document has been added to the student\r\n        emit DocumentAdded(_studentAddress, _documentName, _hashValue, _access);\r\n    }\r\n\r\n    // Function to add a new university\r\n    function addUniversity(string memory _name, address _universityAddress, string memory _licenseNumber, bool _approvedByGovernment) public {\r\n        // Ensure the university address is unique\r\n        require(universities[_universityAddress].universityAddress == address(0), \"University address already exists\");\r\n\r\n        // Ensure the license number is unique\r\n        require(!licenseNumbers[_licenseNumber], \"License number already exists\");\r\n\r\n        // Ensure the university is approved by the government\r\n        require(_approvedByGovernment, \"University must be approved by the government\");\r\n\r\n        // Create a new university\r\n        University storage newUniversity = universities[_universityAddress];\r\n        newUniversity.name = _name;\r\n        newUniversity.universityAddress = _universityAddress;\r\n        newUniversity.licenseNumber = _licenseNumber;\r\n        newUniversity.approvedByGovernment = _approvedByGovernment;\r\n\r\n        // Add university address to the array\r\n        universityAddresses.push(_universityAddress);\r\n\r\n        // Mark the license number as used\r\n        licenseNumbers[_licenseNumber] = true;\r\n\r\n        // Emit an event to notify that a new university has been added\r\n        emit UniversityAdded(_universityAddress, _name);\r\n    }\r\n\r\n    // Function to verify if a university is legitimate\r\n    function isUniversityLegitimate(address _universityAddress) public view returns (bool) {\r\n        return universities[_universityAddress].approvedByGovernment && bytes(universities[_universityAddress].licenseNumber).length > 0;\r\n    }\r\n\r\n    // Function to get the count of documents for a student\r\n    function getDocumentCount(address _studentAddress) public view returns (uint) {\r\n        return students[_studentAddress].documentKeys.length;\r\n    }\r\n\r\n    // Function to get the details of a document for a student\r\n    function getDocumentDetails(address _studentAddress, string memory _hashValue) public view returns (string memory, string memory, AccessType) {\r\n        Document memory doc = students[_studentAddress].documents[_hashValue];\r\n        return (doc.name, doc.hashValue, doc.access);\r\n    }\r\n\r\n    // Function to change the access type of a document for a student\r\n    function changeDocumentAccess(address _studentAddress, string memory _hashValue, AccessType _newAccessType) public {\r\n        // Ensure the student exists\r\n        require(students[_studentAddress].studentAddress != address(0), \"Student does not exist\");\r\n\r\n        // Ensure the caller is the student who owns the document\r\n        require(msg.sender == _studentAddress, \"Only the student can change document access\");\r\n\r\n        // Ensure the document exists\r\n        require(students[_studentAddress].documents[_hashValue].access != AccessType(0), \"Document does not exist\");\r\n\r\n        // Update the document access type\r\n        students[_studentAddress].documents[_hashValue].access = _newAccessType;\r\n\r\n        // Emit an event to notify that document access has been changed\r\n        emit DocumentAccessChanged(_studentAddress, _hashValue, _newAccessType);\r\n    }\r\n\r\n    // Function to get all universities added\r\n    function getAllUniversities() public view returns (University[] memory) {\r\n        University[] memory allUniversities = new University[](universityAddresses.length);\r\n        for (uint i = 0; i < universityAddresses.length; i++) {\r\n            allUniversities[i] = universities[universityAddresses[i]];\r\n        }\r\n        return allUniversities;\r\n    }\r\n}\r\n",
  "sourcePath": "C:\\Users\\DELL\\Desktop\\EMPVERIFY\\contracts\\BGV.sol",
  "compiler": {
    "name": "solc",
    "version": "0.8.0+commit.c7dfd78e.Emscripten.clang"
  },
  "schemaVersion": "3.4.16",
  "updatedAt": "2024-04-02T18:11:23.538Z",
  "networkType": "ethereum",
  "devdoc": {
    "kind": "dev",
    "methods": {},
    "version": 1
  },
  "userdoc": {
    "kind": "user",
    "methods": {},
    "version": 1
  }
}